:020000040800F2
:1000000000500020413D0008293800082B38000826
:100010002D3800082F380008313800080000000093
:10002000000000000000000000000000333800085D
:10003000353800080000000037380008393800085B
:10004000893D0008893D0008893D0008893D000878
:10005000893D0008893D0008893D0008893D000868
:10006000893D0008893D0008893D0008893D000858
:10007000893D0008893D0008893D0008893D000848
:10008000893D0008893D0008893D0008893D000838
:1000900045380008893D0008893D0008893D000871
:1000A000893D0008893D0008893D0008893D000818
:1000B000893D0008893D0008893D0008893D000808
:1000C000893D0008893D0008893D0008893D0008F8
:1000D000893D0008893D0008893D0008893D0008E8
:1000E000893D0008893D0008893D000800000000A6
:1000F0000000000000000000000000000000000000
:0C01000000000000000000005FF808F1A3
:1001100010B5054C237833B9044B13B10448AFF341
:1001200000800123237010BD340300200000000074
:100130003458000808B5034B1BB103490348AFF31B
:10014000008008BD0000000038030020345800087B
:10015000034613F8012B002AFBD1181A0138704707
:1001600081F0004102E000BF83F0004330B54FEA68
:1001700041044FEA430594EA050F08BF90EA020FD5
:100180001FBF54EA000C55EA020C7FEA645C7FEA68
:10019000655C00F0E2804FEA5454D4EB5555B8BF8B
:1001A0006D420CDD2C4480EA020281EA030382EAFC
:1001B000000083EA010180EA020281EA0303362D8E
:1001C00088BF30BD11F0004F4FEA01314FF4801C61
:1001D0004CEA113102D0404261EB410113F0004F73
:1001E0004FEA03334CEA133302D0524263EB43032A
:1001F00094EA050F00F0A780A4F10104D5F1200EC8
:100200000DDB02FA0EFC22FA05F2801841F1000122
:1002100003FA0EF2801843FA05F359410EE0A5F1F6
:1002200020050EF1200E012A03FA0EFC28BF4CF027
:10023000020C43FA05F3C01851EBE37101F00045DD
:1002400007D54FF0000EDCF1000C7EEB00006EEBEA
:100250000101B1F5801F1BD3B1F5001F0CD3490874
:100260005FEA30004FEA3C0C04F101044FEA4452CB
:1002700012F5800F80F09A80BCF1004F08BF5FEA52
:10028000500C50F1000041EB045141EA050130BD32
:100290005FEA4C0C404141EB010111F4801FA4F1D5
:1002A0000104E9D191F0000F04BF01460020B1FA2A
:1002B00081F308BF2033A3F10B03B3F120020CDA62
:1002C0000C3208DD02F1140CC2F10C0201FA0CF040
:1002D00021FA02F10CE002F11402D8BFC2F1200CA5
:1002E00001FA02F120FA0CFCDCBF41EA0C0190405B
:1002F000E41AA2BF01EB0451294330BD6FEA0404A4
:100300001F3C1CDA0C340EDC04F11404C4F120028E
:1003100020FA04F001FA02F340EA030021FA04F3A0
:1003200045EA030130BDC4F10C04C4F1200220FAF7
:1003300002F001FA04F340EA0300294630BD21FA35
:1003400004F0294630BD94F0000F83F4801306BFFB
:1003500081F480110134013D4EE77FEA645C18BFEF
:100360007FEA655C29D094EA050F08BF90EA020F86
:1003700005D054EA000C04BF1946104630BD91EA7E
:10038000030F1EBF0021002030BD5FEA545C05D181
:100390004000494128BF41F0004130BD14F58004C0
:1003A0003CBF01F5801130BD01F0004545F0FE4134
:1003B00041F470014FF0000030BD7FEA645C1ABF69
:1003C000194610467FEA655C1CBF0B46024650EAA0
:1003D000013406BF52EA033591EA030F41F40021CC
:1003E00030BD00BF90F0000F04BF0021704730B552
:1003F0004FF4806404F132044FF000054FF0000127
:1004000050E700BF90F0000F04BF0021704730B5E7
:100410004FF4806404F1320410F0004548BF4042BC
:100420004FF000013EE700BF42004FEAE2014FEA11
:1004300031014FEA02701FBF12F07F4393F07F4FEC
:1004400081F06051704732F07F4208BF704793F0EF
:100450007F4F04BF41F40021704730B54FF4607402
:1004600001F0004521F000411CE700BF50EA010205
:1004700008BF704730B54FF000050AE050EA0102AE
:1004800008BF704730B511F0004502D5404261EB1E
:1004900041014FF4806404F132045FEA915C3FF45F
:1004A000D8AE4FF003025FEADC0C18BF03325FEAFC
:1004B000DC0C18BF033202EBDC02C2F1200300FAAD
:1004C00003FC20FA02F001FA03FE40EA0E0021FAD2
:1004D00002F11444BDE600BF70B54FF0FF0C4CF4C0
:1004E000E06C1CEA11541DBF1CEA135594EA0C0F72
:1004F00095EA0C0F00F0DEF82C4481EA030621EAAD
:100500004C5123EA4C5350EA013518BF52EA0335E7
:1005100041F4801143F4801338D0A0FB02CE4FF099
:100520000005E1FB02E506F00042E0FB03E54FF0C9
:100530000006E1FB03569CF0000F18BF4EF0010EC1
:10054000A4F1FF04B6F5007F64F5407404D25FEABD
:100550004E0E6D4146EB060642EAC62141EA555170
:100560004FEAC52040EA5E504FEACE2EB4F1FD0CB2
:1005700088BFBCF5E06F1ED8BEF1004F08BF5FEA30
:10058000500E50F1000041EB045170BD06F00046E2
:1005900046EA010140EA020081EA0301B4EB5C048F
:1005A000C2BFD4EB0C0541EA045170BD41F4801187
:1005B0004FF0000E013C00F3AB8014F1360FDEBFAC
:1005C000002001F0004170BDC4F10004203C35DA88
:1005D0000C341BDC04F11404C4F1200500FA05F30B
:1005E00020FA04F001FA05F240EA020001F00042AC
:1005F00021F0004110EBD37021FA04F642EB060122
:100600005EEA430E08BF20EAD37070BDC4F10C044B
:10061000C4F1200500FA04F320FA05F001FA04F20F
:1006200040EA020001F0004110EBD37041F10001FB
:100630005EEA430E08BF20EAD37070BDC4F1200506
:1006400000FA05F24EEA020E20FA04F301FA05F26E
:1006500043EA020321FA04F001F0004121FA04F216
:1006600020EA020000EBD3705EEA430E08BF20EAE6
:10067000D37070BD94F0000F0FD101F00046400020
:1006800041EB010111F4801F08BF013CF7D041EAA2
:10069000060195F0000F18BF704703F000465200A6
:1006A00043EB030313F4801F08BF013DF7D043EA77
:1006B0000603704794EA0C0F0CEA135518BF95EA2D
:1006C0000C0F0CD050EA410618BF52EA4306D1D1B4
:1006D00081EA030101F000414FF0000070BD50EAD3
:1006E000410606BF1046194652EA430619D094EA5D
:1006F0000C0F02D150EA013613D195EA0C0F05D147
:1007000052EA03361CBF104619460AD181EA03019A
:1007100001F0004141F0FE4141F470014FF0000052
:1007200070BD41F0FE4141F4780170BD70B54FF0ED
:10073000FF0C4CF4E06C1CEA11541DBF1CEA13556D
:1007400094EA0C0F95EA0C0F00F0A7F8A4EB05044F
:1007500081EA030E52EA03354FEA013100F0888046
:100760004FEA03334FF0805545EA131343EA12630F
:100770004FEA022245EA111545EA10654FEA0026C4
:100780000EF000419D4208BF964244F1FD0404F57D
:10079000407402D25B084FEA3202B61A65EB0305D9
:1007A0005B084FEA32024FF480104FF4002CB6EB96
:1007B000020E75EB030E22BFB61A754640EA0C0016
:1007C0005B084FEA3202B6EB020E75EB030E22BF56
:1007D000B61A754640EA5C005B084FEA3202B6EB97
:1007E000020E75EB030E22BFB61A754640EA9C0056
:1007F0005B084FEA3202B6EB020E75EB030E22BF26
:10080000B61A754640EADC0055EA060E18D04FEAE3
:10081000051545EA16754FEA06164FEAC30343EA83
:1008200052734FEAC2025FEA1C1CC0D111F4801F50
:100830000BD141EA00014FF000004FF0004CB6E749
:1008400011F4801F04BF01430020B4F1FD0C88BFE8
:10085000BCF5E06F3FF6AFAEB5EB030C04BFB6EBF3
:10086000020C5FEA500C50F1000041EB045170BDE6
:100870000EF0004E4EEA113114EB5C04C2BFD4EB13
:100880000C0541EA045170BD41F480114FF0000E97
:10089000013C90E645EA060E8DE60CEA135594EA13
:1008A0000C0F08BF95EA0C0F3FF43BAF94EA0C0F16
:1008B0000AD150EA01347FF434AF95EA0C0F7FF48B
:1008C00025AF104619462CE795EA0C0F06D152EADF
:1008D00003353FF4FDAE1046194622E750EA4106C3
:1008E00018BF52EA43067FF4C5AE50EA41047FF4D4
:1008F0000DAF52EA43057FF4EBAE12E74FF0FF3C39
:1009000006E000BF4FF0010C02E000BF4FF0010C09
:100910004DF804CD4FEA410C7FEA6C5C4FEA430C82
:1009200018BF7FEA6C5C1BD001B050EA410C0CBFD1
:1009300052EA430C91EA030F02BF90EA020F002033
:10094000704710F1000F91EA030F58BF994208BF9A
:1009500090422CBFD8176FEAE37040F00100704757
:100960004FEA410C7FEA6C5C02D150EA013C07D1AE
:100970004FEA430C7FEA6C5CD6D152EA033CD3D0F9
:100980005DF8040B704700BF8446104662468C46F3
:100990001946634600E000BF01B5FFF7B7FF002826
:1009A00048BF10F1000F01BD4DF808EDFFF7F4FF4F
:1009B0000CBF012000205DF808FB00BF4DF808EDDA
:1009C000FFF7EAFF34BF012000205DF808FB00BFFD
:1009D0004DF808EDFFF7E0FF94BF012000205DF81F
:1009E00008FB00BF4DF808EDFFF7CEFF94BF0120D4
:1009F00000205DF808FB00BF4DF808EDFFF7C4FFCD
:100A000034BF012000205DF808FB00BF4FEA410C15
:100A10007FEA6C5C02D150EA013C0AD14FEA430CF8
:100A20007FEA6C5C02D152EA033C02D14FF0000035
:100A300070474FF0010070474FEA410212F5001273
:100A400015D211D56FF47873B3EB625212D94FEA15
:100A5000C12343F0004343EA505311F0004F23FAFF
:100A600002F018BF404270474FF00000704750EA54
:100A7000013005D111F0004008BF6FF00040704711
:100A80004FF00000704700BF10B504460E4B1878B9
:100A90004FF47A73B3FBF0F30C4A1068B0FBF3F039
:100AA00000F0A0F868B90F2C01D901200AE000225B
:100AB00021464FF0FF3000F055F8034B5C600020FA
:100AC00000E0012010BD00BF000000201C0100203C
:100AD00008B5074A136843F010031360032000F0C1
:100AE0002FF80020FFF7D0FF02F028FE002008BDFD
:100AF00000200240034A1168034B1B780B4413602B
:100B0000704700BF8C05002000000020014B1868D2
:100B1000704700BF8C05002038B50446FFF7F6FF8C
:100B20000546B4F1FF3F02D0044B1B781C44FFF78D
:100B3000EDFF401BA042FAD338BD00BF00000020EB
:100B4000074AD36823F4E0631B041B0C000200F483
:100B5000E060184340F0BF6040F40030D060704760
:100B600000ED00E030B4174BDB68C3F30223C3F1A0
:100B70000704042C28BF04241D1D062D18D9033B8F
:100B80004FF0FF3505FA04F421EA0401994005FA13
:100B900003F322EA0303194300280BDB0901C9B25E
:100BA00000F1604000F5614080F8001330BC7047F0
:100BB0000023E5E700F00F000901C9B2024B195408
:100BC000F4E700BF00ED00E014ED00E000F01F02CC
:100BD000400901239340024A42F82030704700BF89
:100BE00000E100E00138B0F1807F0AD2064B586086
:100BF000064AF02182F823100020986007221A602C
:100C000070470120704700BF10E000E000ED00E0F9
:100C1000042805D0054A136823F0040313607047C5
:100C2000024A136843F004031360704710E000E0C9
:100C3000704708B5FFF7FCFF08BD0000F0B482B0B4
:100C400000263546A1E0002C59D0012C00D1CE68F9
:100C5000FF2B68D88446FF2B68D8AC00DCF8002056
:100C60000F27A74022EA070206FA04F42243CCF831
:100C700000204A6812F0805F00F086805E4A946926
:100C800044F001049461926902F001020192019A18
:100C9000AC08A71C594A52F8272005F00307BF00EB
:100CA0004FF00F0C0CFA07FC22EA0C0C544A90424D
:100CB00042D002F5806290427FD002F5806290427D
:100CC0007DD002F58062904234D0042235E04D4F51
:100CD000BC4214D00BD94C4FBC4210D007F5803722
:100CE000BC420CD0A7F58017BC42B1D107E0A7F5F4
:100CF0008017BC4203D007F58037BC42A8D18C686E
:100D00007CB1012C08D042610826A1E7CE680836E4
:100D10009EE7CE680C369BE70261082698E700261E
:100D200096E7042694E700F1040C94E7A5F1080483
:100D3000A40093E7032200E00022BA4042EA0C023A
:100D400002342E4F47F824204A6812F4803F38D0EE
:100D50002E4C22681A4322604A6812F4003F36D0B3
:100D60002A4C62681A4362604A6812F4801F34D0C9
:100D7000264CA2681A43A2604A6812F4001F32D0BF
:100D8000224CE2681343E36001350F2D31D8012274
:100D9000AA400B6813409A42F6D14C68122CB8D086
:100DA00095D8022CB2D07FF64EAF032CB7D0112CC1
:100DB0007FF44EAFCE6804364AE70122BDE7022237
:100DC000BBE7124C226822EA03022260C4E70F4C00
:100DD000626822EA03026260C6E70C4CA26822EA5B
:100DE0000302A260C8E7094CE26822EA0303E36059
:100DF000CAE702B0F0BC704700100240000001409A
:100E000000080140000021100000311000040140E2
:100E100012B909040161704701617047002800F0B0
:100E2000A28038B5044690F83D30002B4FD02423E3
:100E300084F83D302268136823F00103136001F049
:100E400009F862684A4B9A4246D84A4B98428CBF8E
:100E500000230123002B40F08880474BA3FB002395
:100E60009B0C226853606168414A91423AD8013331
:100E70002268136261683E4B99423DD8431E490087
:100E8000B3FBF1F30133C3F30B03042B38BF04238B
:100E90002268D361E369216A22680B4313602369E6
:100EA000E16822680B4393606369A16922680B4380
:100EB000D3602268136843F00103136000202064AC
:100EC000202384F83D30206384F83E0038BD80F84C
:100ED0003C3002F083FCAAE7284B98428CBF0023E9
:100EE0000123B7E74FF4967202FB03F3244AA2FBF7
:100EF00003239B090133BBE7A368BBB9421E01EB87
:100F00004105B2FBF5F20132C2F30B02B2FA82F2F2
:100F1000520932BBC3B9013801EB4103B0FBF3F313
:100F20000133C3F30B0343F40043B1E7421E01EB6B
:100F3000810505EB8505B2FBF5F20132C2F30B0228
:100F4000B2FA82F25209E4E7013801EB810303EBC4
:100F50008303B0FBF3F30133C3F30B0343F44043C8
:100F600096E7012394E7012070470120AEE700BF18
:100F7000A08601007F841E0083DE1B43FF083D0026
:100F8000D34D6210002866D0F0B587B0044690F8C3
:100F90002934C3B1032384F82934206801F003F80D
:100FA000254655F8107B6E460FCD0FC62B68336073
:100FB000231D0ECB384600F0E7FF0021206800F02B
:100FC000FCFF002315E080F8283402F017FDE1E76C
:100FD00004EB4312012182F8291082F8283093860D
:100FE000002182F82B109163D1639A1C5201A15009
:100FF00001330E2BECD9002312E004EB4312002145
:1010000082F8291282F82832938682F82B12C2F8CD
:101010003812C2F83C1203F112025201A1500133FE
:101020000E2BEAD9254655F8107B6E460FCD0FC61C
:101030002B683360231D0ECB384600F0C0FF00251F
:1010400084F82450012384F82934206801F0CBFA75
:10105000284607B0F0BD0120704790F82834012BD6
:1010600010D010B50446012180F8281402F005FEC6
:10107000206801F0B6FA206800F08DFF002084F8A7
:10108000280410BD0220704790F82834012B0DD0A1
:1010900010B50446012380F8283480F82410006835
:1010A00001F099FA002084F8280410BD022070474E
:1010B00038B54DB2002D1CDB01F07F04640104F54E
:1010C0000A74044401F07F012170ED0F6570226104
:1010D000E37090F82834012B11D00546012380F8E5
:1010E00028342146006800F080FF002085F828049D
:1010F00038BD01F07F04640128340444E2E7022093
:10110000F6E74AB2002A1BDB01F07F035B0103F51F
:101110000A73034401F07F011970D20F5A7090F8DE
:101120002824012A12D010B50446012280F8282470
:101130001946006801F0EDF8002084F8280410BD7D
:1011400001F07F035B0128330344E3E7022070478B
:1011500070B501F07F056C0104F50A710144044487
:10116000C4F83C2205F11202520186188350002374
:10117000736084F8293284F8285225B1006801F0A0
:101180004EFA002070BD006801F049FAF9E701F05D
:101190000F01123100EB41118888704770B501F0E2
:1011A0007F056C0104F1280101440444E263AA1C98
:1011B00052018618835000237360012384F829307C
:1011C00084F8285025B1006801F029FA002070BD8C
:1011D000006801F024FAF9E770B582B004460023F4
:1011E000ADF80630ADF804302068B0F844309BB25A
:1011F000ADF8063013F4004F00F00D82BDF8065034
:1012000015F00F0540F0C280BDF8063013F0100F46
:1012100050D003889BB2ADF80430BDF8043013F40D
:10122000006F79D1BDF8043013F4004FDCD003888F
:1012300023F070031B051B0D03802068B0F85030AD
:1012400094F8282203EBC203063300EB4303D3F8E0
:101250000034C3F30903C4F84432002B7CD10021CD
:10126000204602F0F3FB2368B3F85020063203EB6C
:101270004203D4F838123E297CD9C1F34F1211F041
:101280001F0F01D1013A92B26FEAC2626FEA524275
:1012900092B2C3F80024226813889BB223F48043DF
:1012A00023F0700383F4405343F4004343F080037E
:1012B000138099E703889BB223F4E14323F0700382
:1012C0009BB203802268B2F8503094F8281003EBE8
:1012D000C103023302EB4303D3F80034C3F3090321
:1012E0006364E26B1344E3630021204602F0B8FB21
:1012F00094F82430002B3FF477AF236C002B7FF45D
:1013000073AF94F82430226843F08003A2F84C3085
:10131000002384F8243067E7B0F8503094F828228E
:1013200003EBC203063300EB4303D3F80034C3F3EB
:101330000903C4F84432B4F82C2204F22C4101F021
:10134000CBFA2268138823F070031B051B0D138052
:10135000204602F073FB47E7B4F82C22D4F83C1285
:1013600001F0BAFAD4F84422D4F83C321344C4F859
:101370003C3274E7C1F34F0211F0010F01D001328A
:1013800092B2920292B2C3F8002484E730F825307A
:101390009BB2ADF80430BDF8043013F4004F35D1E2
:1013A000BDF8043013F0800F3FF41EAF226832F80E
:1013B00025309BB223F4E14323F070039BB222F863
:1013C000253004EB451393F83230002B40F0B28007
:1013D0002068B0F8503004EB451292F8282003EB57
:1013E000C203023300EB4303D3F80034C3F3090311
:1013F000AA1C04EB42125360002B00F0C68004EBE1
:1014000045118A8DC96B01F0F5F8BEE030F8253042
:1014100023F070031B051B0D20F8253004EB45134A
:1014200093F83232D3B92068B0F8503004EB45124B
:1014300092F8282203EBC203063300EB4303B3F810
:101440000064C6F3090686B304EB45113346B1F8D0
:101450002C22D1F83C1201F03FFA26E0206804EB80
:10146000451393F8282230F8223013F4804F42D0ED
:10147000B0F8503003EBC203023300EB4303B3F880
:101480000064C6F3090666BB226804EB451393F8B3
:10149000281232F8213023F0F0031B051B0D43F412
:1014A000004343F0C00322F8213005F112035B0131
:1014B000E1184A6832444A6004EB4511D1F83C22F5
:1014C0003244C1F83C22E3581BB1D1F838128E42A5
:1014D00028D204EB451393F82812204602F0B6FAFE
:1014E0005EE704EB45113346B1F82E22D1F83C12E9
:1014F00001F0F2F9C8E7B0F8503003EBC20306334D
:1015000000EB4303B3F80064C6F30906002EBBD01A
:1015100004EB45113346B1F83022D1F83C1201F00A
:10152000DBF9B1E704EB451191F828122046FFF7EB
:101530000FFE35E7206804EB451393F8282030F8B8
:10154000223013F0400F46D0B0F8503003EBC20306
:10155000023300EB4303D3F80034C3F30903AA1C9E
:1015600004EB421253607BBB226804EB451393F8F3
:10157000281032F8213023F0F0031B051B0D43F433
:10158000404343F0800322F821302268B2F8503003
:1015900004EB451090F8281003EBC103023302EB73
:1015A0004303D3F80024C2F30902AB1C5B01E1182A
:1015B0004A60C16B0A44C263E35823BB90F8281009
:1015C000204602F04DFA0FE604EB4511CA8DC96BB7
:1015D00001F010F8C8E7B0F8503003EBC20306334F
:1015E00000EB4303D3F80034C3F30903AA1C04EB54
:1015F00042125360002BB7D004EB45110A8EC96B21
:1016000000F0F8FFB0E704EB451595F828102046E8
:10161000FFF7C4FDE8E5002002B070BD10B5044638
:10162000006800F0E2FF10F4004F45D1206800F0A0
:10163000DCFF10F4806F43D1206800F0D6FF10F477
:10164000804F08D02268B2F844309BB223F4804324
:101650009BB2A2F84430206800F0C7FF10F4005F8E
:1016600008D02268B2F844309BB223F400539BB2F6
:10167000A2F84430206800F0B8FF10F4805F30D149
:10168000206800F0B2FF10F4006F49D1206800F02C
:10169000ACFF10F4007F64D1206800F0A6FF10F4C6
:1016A000807F08D02268B2F844309BB223F4807364
:1016B0009BB2A2F8443010BD2046FFF78DFDB5E780
:1016C0002268B2F844309BB223F480639BB2A2F844
:1016D0004430204602F0D3F900212046FFF7D4FC25
:1016E000AAE72268B2F840309BB223F004039BB211
:1016F000A2F840302268B2F840309BB223F00803D1
:101700009BB2A2F84030204602F0D6F92268B2F827
:1017100044309BB223F480539BB2A2F84430AFE72D
:101720002268B2F8403043F00803A2F84030226843
:10173000B2F844309BB223F400639BB2A2F8443069
:101740002268B2F8403043F00403A2F84030206829
:1017500000F04BFF10F4805F98D1204602F09CF916
:1017600094E72268B2F844309BB223F400739BB232
:10177000A2F84430204602F07CF98DE738B54AB231
:10178000002A1BDB4B0103F50A73034401249C7000
:1017900001F07F051D70D20F5A7090F82824A242E4
:1017A00018D00446012280F828241946006800F069
:1017B00092FE4DB1002084F8280438BD01F07F036B
:1017C0005B0128330344E1E704F22C41206800F078
:1017D0000FFFEFE70220F0E710B54AB2002A1ADB4C
:1017E0004B0103F50A73034400249C7001F07F0150
:1017F0001970D20F5A7090F82824012A11D004468B
:10180000012280F828241946006800F09BFE002081
:1018100084F8280410BD01F07F035B0128330344E2
:10182000E2E70220F6E711F0800F0CD001F07F0113
:101830004901283101445AB101228A72CB801B0C24
:101840000B8100207047490101F50A710144F2E75C
:101850008A728B80F5E7000082B0084B1B68084A4B
:10186000A2FB03235B0A00FB03F0019000BF019B76
:101870005A1E0192002BF9D102B070471C010020C2
:10188000D34D621070B582B00446036813F0010FA7
:101890002CD0AB4B5B6803F00C03042B1DD0A84B82
:1018A0005B6803F00C03082B12D06368B3F5803F2C
:1018B00041D0002B55D103F1804303F504331A685E
:1018C00022F480321A601A6822F480221A6037E00B
:1018D0009B4B5B6813F4803FE7D0994B1B6813F474
:1018E000003F03D06368002B00F0AE81236813F043
:1018F000020F76D0924B5B6813F00C0F5FD0904BC9
:101900005B6803F00C03082B54D02369002B00F014
:101910008A808C4B01221A60FFF7F8F80546884B45
:101920001B6813F0020F75D1FFF7F0F8401B022877
:10193000F5D903208BE1824A136843F480331360A6
:10194000636843B3FFF7E2F805467D4B1B6813F469
:10195000003FCBD1FFF7DAF8401B6428F5D903200C
:1019600075E1B3F5A02F09D0754B1A6822F48032C7
:101970001A601A6822F480221A60E1E703F18043BA
:10198000A3F53C331A6842F480221A601A6842F4C4
:1019900080321A60D4E7FFF7B9F80546684B1B6838
:1019A00013F4003FA2D0FFF7B1F8401B6428F5D92B
:1019B00003204CE1624B5B6813F4803FA5D1604B80
:1019C0001B6813F0020F04D02369012B01D0012002
:1019D0003DE15B4A136823F0F803616943EAC10300
:1019E0001360236813F0080F32D0A369002B5BD07B
:1019F000554B01221A60FFF789F80546504B5B6A88
:101A000013F0020F21D1FFF781F8401B0228F5D90E
:101A100003201CE14A4A136823F0F803616943EA92
:101A2000C1031360DDE7474B00221A60FFF76EF831
:101A30000546434B1B6813F0020FD2D0FFF766F840
:101A4000401B0228F5D9032001E10120FFF704FF24
:101A5000236813F0040F00F09780394BDB6913F013
:101A6000805F33D1364BDA6942F08052DA61DB694C
:101A700003F080530193019B0125344B1B6813F441
:101A8000807F25D0E368012B36D0002B4CD103F1A9
:101A9000804303F504331A6A22F001021A621A6ABB
:101AA00022F004021A622CE0274B00221A60FFF792
:101AB0002DF80546224B5B6A13F0020FC8D0FFF7E2
:101AC00025F8401B0228F5D90320C0E00025D4E703
:101AD0001E4A136843F480731360FFF717F8064635
:101AE0001A4B1B6813F4807FCCD1FFF70FF8801BD3
:101AF0006428F5D90320AAE0114A136A43F00103D0
:101B00001362E36873B3FFF701F806460C4B1B6AD8
:101B100013F0020F37D1FEF7F9FF801B41F2883333
:101B20009842F3D9032092E0052B11D0044B1A6A96
:101B300022F001021A621A6A22F004021A62E0E735
:101B40000010024000004242800442420070004007
:101B5000414B1A6A42F004021A621A6A42F0010208
:101B60001A62CEE7FEF7D2FF06463B4B1B6A13F024
:101B7000020F08D0FEF7CAFF801B41F2883398425B
:101B8000F3D9032063E0E5B9E369002B5ED0324A64
:101B9000526802F00C02082A5BD0022B17D02F4BA0
:101BA00000221A60FEF7B2FF04462B4B1B6813F0AD
:101BB000007F47D0FEF7AAFF001B0228F5D90320BB
:101BC00045E0254AD36923F08053D361DCE7234BFA
:101BD00000221A60FEF79AFF05461F4B1B6813F0A0
:101BE000007F06D0FEF792FF401B0228F5D90320A4
:101BF0002DE0236AB3F5803F1AD017494B6823F4D0
:101C00007413226A606A024313434B60134B012230
:101C10001A60FEF77BFF04460F4B1B6813F0007F32
:101C20000ED1FEF773FF001B0228F5D903200EE04A
:101C3000094A536823F40033A1680B435360DCE77F
:101C4000002004E0002002E0012000E0002002B0BB
:101C500070BD0120FBE700BF00100240600042425F
:101C600010B487B0164C94E80F000DF1180C0CE975
:101C70000F00238AADF80430124B5B6803F00C02AE
:101C8000082A1AD1C3F38342624412F8102C13F4C9
:101C9000803F05D10C4800FB02F007B010BC704734
:101CA000084B5B68C3F34043634413F8143C074894
:101CB00000FB02F0B0FBF3F0EFE70448EDE700BFF4
:101CC000505800080010024000093D0000127A0040
:101CD000594B1B6803F007038B420CD2564A13681A
:101CE00023F007030B431360136803F007038B42D1
:101CF00001D00120704770B5036813F0020F06D0C1
:101D00004E4A536823F0F0038468234353600C4623
:101D10000546036813F0010F52D04368012B23D00E
:101D2000022B28D0454A126812F0020F00F0828080
:101D300042494A6822F0030213434B60FEF7E6FE75
:101D400006466B68012B1DD0022B2AD03B4B5B68EB
:101D500013F00C0F34D0FEF7D9FE801B41F288330C
:101D60009842F3D9032064E0344A126812F4003F29
:101D7000DED101205DE0314A126812F0007FD7D138
:101D8000012056E02D4B5B6803F00C03042B17D0A9
:101D9000FEF7BCFE801B41F288339842F2D9032043
:101DA00047E0264B5B6803F00C03082B08D0FEF7D6
:101DB000ADFE801B41F288339842F2D9032038E00F
:101DC0001D4B1B6803F00703A3420CD91A4A136882
:101DD00023F0070323431360136803F00703A342B0
:101DE00001D0012025E02B6813F0040F06D0134A20
:101DF000536823F4E063E9680B4353602B6813F0E6
:101E0000080F07D00D4A536823F46053296943EA49
:101E1000C1035360FFF724FF084B5B68C3F3031350
:101E2000074AD35CD840074B18600020FEF72CFE11
:101E3000002070BD0120FCE700200240001002409D
:101E4000645800081C010020014B1868704700BF4F
:101E50001C01002008B5FFF7F7FF044B5B68C3F3D4
:101E60000223034AD35CD84008BD00BF00100240E3
:101E70007458000870B582B00446036813F0010F6F
:101E800034D03E4BDB6913F0805F48D13B4BDA69BD
:101E900042F08052DA61DB6903F080530193019BC9
:101EA0000125374B1B6813F4807F3AD0334B1B6AF4
:101EB00013F4407311D0626802F440729A420CD05D
:101EC0002E4A136A23F440702E4901260E60002624
:101ED0000E60106213F0010F37D1284A136A23F401
:101EE000407361680B431362002D3FD1236813F0E8
:101EF000020F06D0214A536823F44043A1680B43E4
:101F00005360236813F0100F35D01C4A536823F434
:101F10008003E1680B435360002002B070BD0025D0
:101F2000BFE7174A136843F480731360FEF7EEFDB2
:101F30000646134B1B6813F4807FB7D1FEF7E6FD0E
:101F4000801B6428F5D90320E7E7FEF7DFFD06468E
:101F50000A4B1B6A13F0020FBFD1FEF7D7FD801B9F
:101F600041F288339842F3D90320D6E7D36923F0AE
:101F70008053D361BAE70020CFE700BF00100240D2
:101F8000007000404004424284B001A880E80E0086
:101F9000002004B07047B0F8403043F43F43A0F84D
:101FA000403000207047B0F8403023F474535B0495
:101FB0005B0CA0F84030002070470020704784B0D0
:101FC00038B505AC84E80E000123A0F840300024A9
:101FD000A0F84040A0F84440A0F85040FFF7DBFFD5
:101FE0002046BDE8384004B0704710B4CB78032BCE
:101FF0000FD8DFE803F0026D54600A7830F8223021
:102000009BB223F4EC4323F0700343F4007320F8F5
:1020100022300A7830F8223023F0F0031B051B0D24
:10202000134343F4004343F0800320F822308B7ABB
:10203000002B40F0AF804B78002B56D08A88520896
:10204000B0F850300C7803EBC40300EB43035200AC
:10205000C3F800240A7830F8223013F0400F0BD078
:1020600030F8223023F0F0031B051B0D43F400432E
:1020700043F0C00320F822300A7830F822309BB2B7
:1020800023F4E04323F0400383F0200343F40043B0
:1020900043F0800320F82230002010BC70470A78FB
:1020A00030F822309BB223F4EC4323F070039BB250
:1020B00020F82230ADE70A7830F822309BB223F4C2
:1020C000EC4323F0700343F4C06320F82230A0E710
:1020D0000A7830F822309BB223F4EC4323F07003EB
:1020E00043F4806320F8223093E78A885208B0F8DE
:1020F00050300C7803EBC403043300EB430352006D
:10210000C3F80024B0F850300A7803EBC20306335A
:1021100000EB43030C693E2C30D9C4F34F1214F08A
:102120001F0F01D1013A92B26FEAC2626FEA5242C6
:1021300092B2C3F800240A7830F8223013F4804FAA
:102140000BD030F8223023F0F0031B051B0D43F4B5
:10215000404343F0800320F822300A7830F82230E0
:102160009BB223F4804323F0700383F4405343F481
:10217000004343F0800320F822308DE7C4F34F0280
:1021800014F0010F01D0013292B2920292B2C3F860
:102190000024D0E70A7830F8223023F4F8731B05C6
:1021A0001B0D43F4014343F0800320F82230CA881A
:1021B0005208B0F850300C7803EBC40300EB430333
:1021C0005200C3F800240A895208B0F850300C7845
:1021D00003EBC403043300EB43035200C3F80024B1
:1021E0004B78002B4BD10A7830F8223013F4804F13
:1021F0000BD030F8223023F0F0031B051B0D43F405
:10220000404343F0800320F822300A7830F822302F
:1022100013F0400F0BD030F8223023F0F0031B05F1
:102220001B0D43F4004343F0C00320F822300A782A
:1022300030F8223023F0F0031B051B0D43F400435C
:1022400043F0C00320F822300A7830F822309BB2E5
:1022500023F4804323F0700383F4405348F2800456
:10226000234320F822300A7830F822309BB223F43E
:10227000E04323F04003234320F822300CE70A78A0
:1022800030F8223013F4804F0BD030F8223023F096
:10229000F0031B051B0D43F4404343F0800320F87B
:1022A00022300A7830F8223013F0400F0BD030F88B
:1022B000223023F0F0031B051B0D43F4004343F0D1
:1022C000C00320F822300A7830F8223023F0F003DF
:1022D0001B051B0D43F4404343F0800320F82230DC
:1022E0000B7830F8232092B222F4E04222F0400230
:1022F00048F28004224320F823200A7830F8223064
:102300009BB223F4804323F07003234320F8223050
:10231000C2E68B7A002B44D14B780BB30A7830F8A5
:10232000223013F0400F0BD030F8223023F0F003AE
:102330001B051B0D43F4004343F0C00320F822307B
:102340000A7830F822309BB223F4E04323F04003B4
:1023500043F4004343F0800320F82230002070470C
:102360000A7830F8223013F4804F0BD030F8223046
:1023700023F0F0031B051B0D43F4404343F080039F
:1023800020F822300A7830F822309BB223F48043C0
:1023900023F0700343F4004343F0800320F822301D
:1023A000DCE710B44B78002B4BD10A7830F82230A0
:1023B00013F4804F0BD030F8223023F0F0031B05CC
:1023C0001B0D43F4404343F0800320F822300A7889
:1023D00030F8223013F0400F0BD030F8223023F0C9
:1023E000F0031B051B0D43F4004343F0C00320F82A
:1023F00022300A7830F8223023F0F0031B051B0D41
:1024000043F4004343F0C00320F822300B7830F847
:10241000232092B222F4804222F0700248F280041B
:10242000224320F823200A7830F822309BB223F48C
:10243000E04323F04003234320F82230002010BC67
:1024400070470A7830F8223013F4804F0BD030F800
:10245000223023F0F0031B051B0D43F4404343F0EF
:10246000800320F822300A7830F8223013F0400F31
:102470000BD030F8223023F0F0031B051B0D43F482
:10248000004343F0C00320F822300A7830F82230AD
:1024900023F0F0031B051B0D43F4404343F080037E
:1024A00020F822300B7830F8232092B222F4E04258
:1024B00022F0400248F28004224320F823200A78C8
:1024C00030F822309BB223F4804323F0700323437F
:1024D00020F82230B2E70A788AB14B7813BB30F883
:1024E00022309BB223F4804323F0700383F48053A3
:1024F00043F4004343F0800320F8223010E030F82A
:1025000022309BB223F4804323F0400383F48053B2
:1025100083F0100343F4004343F0800320F822309B
:102520000020704730F822309BB223F4E04323F0C0
:10253000400383F0100343F4004343F0800320F88A
:102540002230EDE74B781BB30A7830F8223013F0D5
:10255000400F0BD030F8223023F0F0031B051B0D89
:1025600043F4004343F0C00320F822300A7830F8E7
:1025700022309BB223F4E04323F0400383F0300386
:1025800043F4004343F0800320F8223000207047DA
:102590000A7830F8223013F4804F0BD030F8223014
:1025A00023F0F0031B051B0D43F4404343F080036D
:1025B00020F822300A7830F822309BB223F480438E
:1025C00023F0700383F4405343F4004343F080034B
:1025D00020F82230DAE711B98023A0F84C3000202F
:1025E00070470020704700207047B0F844007047E3
:1025F0000020704701335B1000EB420202F580625D
:1026000063B110B40C78487844EA002422F8044BF3
:102610000231013B002BF5D110BC70477047F8B573
:102620008A694D78012D34D00B69934280F0EA809D
:10263000D21A8A618A7A002A40F0F480B0F85020D9
:102640000C7802EBC402063200EB42023E2B40F251
:10265000DD80C3F34F1413F01F0F01D1013CA4B26E
:102660006FEAC4646FEA5444A4B2C2F800440A7822
:1026700030F822309BB223F4804323F0700383F4BC
:10268000405343F4004343F0800320F822300020FD
:10269000F8BD0F69974225D2D21B8A610E460446C7
:1026A0008B7A1BB30B7830F8232012F0400F69D0DF
:1026B000002D37D1B0F8502002EBC303063300EBF6
:1026C00043033E2F22D9C7F34F1217F01F0F01D13A
:1026D000013A92B26FEAC2626FEA524292B2C3F812
:1026E000002428E000238B611746D7E7BBB28A8815
:1026F0004969FFF77FFFB4F85030327803EBC2032B
:10270000023304EB4303C3F800742AE0C7F34F021B
:1027100017F0010F01D0013292B2920292B2C3F8C7
:10272000002408E0B0F8502002EBC303023300EBB2
:102730004303C3F800743289BBB271692046FFF7C6
:1027400059FF7378002B4DD1327834F8223023F0C2
:10275000F0031B051B0D43F4004343F0C00324F8B2
:102760002230327834F822309BB223F4E04323F055
:10277000400383F0300343F4004343F0800324F824
:10278000223084E71DBBB0F8502002EBC3030233B4
:1027900000EB43033E2F0ED9C7F34F1217F01F0F64
:1027A00001D1013A92B26FEAC2626FEA524292B22A
:1027B000C3F8002414E0C7F34F0217F0010F01D053
:1027C000013292B2920292B2C3F8002408E0B0F84B
:1027D000502002EBC303023300EB4303C3F8007441
:1027E000F288A9E7012BBCD1327834F8223023F0EB
:1027F000F0031B051B0D43F4404343F0800324F812
:102800002230AEE700238B61134613E7C3F34F0476
:1028100013F0010F01D00134A4B2A402A4B2C2F893
:10282000004424E7BDB9B0F850200C7802EBC40294
:10283000023200EB42023E2B28D9C3F34F1413F0AF
:102840001F0F01D1013CA4B26FEAC4646FEA544483
:10285000A4B2C2F800444A7882BBB0F850200C7889
:1028600002EBC402063200EB42023E2B1AD9C3F33C
:102870004F1413F01F0F01D1013CA4B26FEAC464DE
:102880006FEA5444A4B2C2F80044F0E6C3F34F0424
:1028900013F0010F01D00134A4B2A402A4B2C2F813
:1028A0000044D8E7C3F34F0413F0010F01D0013403
:1028B000A4B2A402A4B2C2F80044D8E6012A7FF46C
:1028C000D6AEB0F850200C7802EBC402023200EB16
:1028D0004202C2F80034CAE601335B1000EB420248
:1028E00002F5806204E0106821F8020B013B04321B
:1028F000002BF8D17047D0F818321BB10020C3F874
:10290000140270470220704710B5D0F81842D0F872
:102910001C325BB194F80002FF2807D09B6894F842
:10292000012221469847FF2384F80032002010BD81
:10293000432303800048704708000020432303809E
:10294000004870474C000020432303800048704734
:10295000900000200A23038000487047D400002024
:1029600038B50446D0F8185201F07CF9C5F80C02CD
:10297000D4F818324BB1D4F81C32DB6805F503717A
:10298000D5F804029847002038BD0220FCE700007B
:1029900070B505460C46D0F818620B7813F060024B
:1029A00025D0202A07D1CA883AB9D0F81C329B68B2
:1029B000002248789847002070BD13F0800F0BD09C
:1029C000D0F81C329B68314660789847E2883146DF
:1029D000284600F071FCEEE74B7886F80032CB8891
:1029E00086F80132CA88314600F07BFCE3E74B7879
:1029F0000A2BE0D10122024900F05EFCDBE700BFB8
:102A00005003002010B50446812101F0C4F80121D3
:102A1000204601F0C0F88221204601F0BCF8D4F82D
:102A2000183253B1D4F81C325B689847D4F81802B6
:102A300001F022F90023C4F81832002010BD38B587
:102A40000446037C73BB4FF400730222812101F022
:102A500091F84FF4007302220121204601F08AF818
:102A6000082303228221204601F084F84FF40770E6
:102A700001F0FEF80546C4F8180248B3D4F81C3239
:102A80001B6898470023C5F81432C5F81832237C18
:102A9000A3B14023D5F804220121204601F0D4F847
:102AA000002038BD40230222812101F063F8402339
:102AB00002220121204601F05DF8D1E74FF40073B6
:102AC000D5F804220121204601F0BEF80020E8E7F5
:102AD0000120E6E719B1C0F81C120020704702205F
:102AE0007047D0F81832C3F80812C3F8102200203B
:102AF0007047D0F81832C3F8041200207047D0F89D
:102B000018228AB108B5D2F814320BB1012008BDE1
:102B10000123C2F81432B2F81032D2F8082281210F
:102B200001F084F80020F2E702207047D0F8182264
:102B30009AB108B5037C3BB14023D2F804220121AD
:102B400001F082F8002008BD4FF40073D2F804228F
:102B5000012101F079F80020F5E70220704798B1D3
:102B600008B50346D0F8140210B10020C3F81402CF
:102B700009B1C3F810121846012380F8FC31027025
:102B800000F0A0FF002008BD0220704719B1C0F876
:102B90001412002070470220704708B500F0DCFFD7
:102BA000002008BD08B5D0F8143233B11B6898472F
:102BB00008B9002008BD0220FCE70220FAE708B5AA
:102BC000D0F814325B689847002008BD38B5044639
:102BD00000F50275284600F00CF90123C4F8F43121
:102BE000B4F80E32C4F8F83194F8081201F01F035B
:102BF000012B0ED03BB1022B10D001F080012046FA
:102C000000F0D7FF03E02946204600F06CFA0020D0
:102C100038BD2946204600F08AFAF8E729462046C2
:102C200000F0A1FAF3E710B5044621BB1346D0F833
:102C3000F421032A01D0002010BDD0F80C11D0F8E7
:102C4000102191420CD8D0F814321B6923B190F8AE
:102C5000FC21032A00D19847204600F059FBEAE7FF
:102C6000891AC0F80C118A4228BF0A4692B2194646
:102C700000F046FBDFE70A46D0F814329B69002BD0
:102C8000D9D090F8FC110329D5D111469847D2E745
:102C900010B50446002946D11346D0F8F421022A83
:102CA00005D094F80032012B39D0002010BDC16945
:102CB000026A914219D88169B1FBF2F302FB131346
:102CC0002BB98A4203D8D0F8F83199421AD3D4F8F4
:102CD0001432DB682BB194F8FC21032A01D1204681
:102CE0009847204600F01FFBDBE78A1AC26192B2C8
:102CF000194600F0EEFA00231A461946204600F065
:102D0000A3FFCEE70022114600F0E3FA0021C4F849
:102D1000F8110B460A46204600F096FFC1E7002353
:102D200084F80032C1E70A46D0F814325B69002B00
:102D3000BBD090F8FC110329B7D111469847B4E7EE
:102D400038B5044640230022114600F013FF402509
:102D5000C4F810512B4600228021204600F00AFFC3
:102D60002562012384F8FC31D4F818322BB1D4F851
:102D700014325B68217920469847002038BD0174E1
:102D80000020704790F8FC3180F8FD31042380F872
:102D9000FC310020704790F8FD3180F8FC310020B4
:102DA000704708B590F8FC31032B01D0002008BD16
:102DB000D0F81432DB69002BF8D09847F6E70023EF
:102DC00002E00133DBB201300278002AF9D1184663
:102DD00070474B88012B0BD110B50446C0F8043264
:102DE000D0F814329B689847204600F091FA10BD45
:102DF00070470B7803704B7843708B78CA7803EB7D
:102E0000022343800B794A7903EB022383808B7979
:102E1000CA7903EB0223C380704710B504468021B2
:102E200000F0C7FE0021204600F0C3FE10BD30B503
:102E300083B004460D464A88130A013B062B00F274
:102E40008180DFE803F00413277F7F637000D0F8F0
:102E500010321B680DF10601007C9847BDF8062072
:102E600012B1EB88002B71D103B030BD037C43B9A4
:102E7000D0F814329B6A0DF1060098470223437084
:102E8000ECE7D0F81432DB6A0DF106009847022314
:102E90004370E3E7D2B2052A34D8DFE802F0030B2F
:102EA000131B232BD0F810325B680DF10601007C58
:102EB0009847D3E7D0F810329B680DF10601007CEB
:102EC0009847CBE7D0F81032DB680DF10601007CA3
:102ED0009847C3E7D0F810321B690DF10601007C5A
:102EE0009847BBE7D0F810325B690DF10601007C12
:102EF0009847B3E7D0F810329B690DF10601007CCA
:102F00009847ABE72946FFF788FFADE7037C33B965
:102F1000D0F814325B6B0DF1060098479EE7294606
:102F2000FFF77BFFA0E7037C43B9D0F814321B6B9B
:102F30000DF106009847072343708FE72946FFF7F6
:102F40006CFF91E72946FFF768FF8DE79A4228BF9B
:102F50001A46ADF806200146204600F0ADF983E799
:102F600038B504468B88E3B9CB88D3B98D7805F0A2
:102F70007F0590F8FC31032B0CD080F8FE512946D8
:102F800000F046FE204600F0C3F935B1022384F874
:102F9000FC3109E0FFF741FF06E0012384F8FC3132
:102FA00002E02046FFF739FF38BD000038B504467F
:102FB0000D468978254B1970012909D890F8FC3104
:102FC000022B09D0032B1CD02946FFF726FF02E075
:102FD0002946FFF722FF38BD81B14160032380F805
:102FE000FC31FFF7DFFD022803D0204600F090F906
:102FF000F1E729462046FFF710FFECE700F088F9DB
:10300000E9E789B1436899421DD0D9B2FFF7D7FDEE
:103010000E4B197861602046FFF7C4FD02280DD0E1
:10302000204600F075F9D6E7022380F8FC314160B4
:10303000FFF7C5FD204600F06BF9CCE72946204696
:10304000FFF7EBFEC7E700F063F9C4E75103002088
:1030500008B5CB88012B08D190F8FC31022B07D0A2
:10306000032B0DD0FFF7D9FE01E0FFF7D6FE08BD18
:103070000146002341F8083F012200F01DF9F6E760
:103080000122011D00F018F9F1E708B590F8FC31B4
:10309000023B012B0CD80123C360D0F804320BB1E2
:1030A0000323C360022200F10C0100F005F908BD02
:1030B000FFF7B3FEFBE710B5044690F8FC31023B86
:1030C000012B0DD84B88012B09D10023C0F8043205
:1030D000D0F814329B689847204600F019F910BDCB
:1030E000FFF79BFEFBE708B54B78092B1CD8DFE800
:1030F00003F012181B151B09051B0F0CFFF797FE99
:10310000002008BDFFF72CFFFAE7FFF74FFFF7E7B6
:10311000FFF79EFFF4E7FFF7B8FFF1E7FFF759FE6F
:10312000EEE7FFF7C8FFEBE7FFF777FEE8E738B514
:1031300004460D4690F8FC31032B11D10B79012B7D
:103140000BD8D0F814329B689847EB880BB100205D
:1031500038BD204600F0DCF8F9E7FFF75EFEF6E741
:10316000FFF75BFEF3E738B505460C468A880B7817
:1031700003F06003202B05D1D0F814329B689847E8
:10318000002038BDD1B26378012B25D0002B47D069
:10319000032BF5D190F8FC31022B05D0032B0AD07C
:1031A0002146FFF73AFEEBE70029E9D08029E7D076
:1031B00000F0FFFCE4E7638823B919B1802901D04E
:1031C00000F0F7FCD5F814329B6821462846984752
:1031D000284600F09DF8D3E790F8FC31022B05D08B
:1031E000032B0AD02146FFF718FEC9E70029C7D0F4
:1031F0008029C5D000F0DDFCC2E76388002BBFD179
:1032000011F07F0F03D1284600F082F8B8E700F0F4
:10321000DEFCD5F814329B68214628469847F2E731
:1032200090F8FC31022B05D0032B09D02146FFF783
:10323000F4FDA5E711F07F0FA2D000F0BAFC9FE7E4
:1032400012F0800F11D101F07F04103400EB041450
:103250000434284600F0C9FC70B101232360022227
:103260002146284600F028F88AE701F07F0401345F
:1032700000EB04140434ECE700232360EFE7D0B143
:1032800070B50D4616460446FFF799FD0130400023
:1032900080B23080287003236B70022307E0013472
:1032A0005A1CD2B2E9540233DBB20021A95421786E
:1032B0000029F4D170BD704710B513460222C0F842
:1032C000F4218361C3610A46002100F0AFFC0020B5
:1032D00010BD08B513460A46002100F0A7FC0020E7
:1032E00008BD10B513460322C0F8F421C0F8083118
:1032F000C0F80C310A46002100F0A6FC002010BDE9
:1033000008B513460A46002100F09EFC002008BDC7
:1033100008B50423C0F8F43100231A46194600F01A
:1033200085FC002008BD08B50523C0F8F431002352
:103330001A46194600F088FC002008BD70470000BE
:1033400070B5064600250FE0094CE36883F400538E
:10335000E360C820FDF7E0FBE36883F40053E3601B
:10336000C820FDF7D9FB0135AE42EDDC70BD00BFD2
:103370000010014010B582B000F002FBB0F1FF3F39
:1033800001D102B010BDC4B28DF8044000238DF805
:10339000053001A800F056F8322C0ED007D9652C64
:1033A00015D0682CEDD10F4800F056F8E9E7312C24
:1033B000E7D10D4800F050F8E3E70C4800F04CF876
:1033C0006420FDF7A9FB0620FFF7BAFFD9E70848FC
:1033D00000F042F86420FDF79FFB0221002000F07E
:1033E000ADF8CEE7C05800087C5800088C5800089B
:1033F000A45800082DE9F04106460D4600F0E8FA11
:10340000C4B20CB1012C02D02046BDE8F081FDF71A
:103410007DFB80460A4B1F68B7F1FF3F00D00137A4
:10342000FDF774FBA0EB0800B842EDD22946304608
:1034300000F0CEFAC4B2002CE6D0022CF0D1E3E7C3
:103440001801002010B50446FCF782FE411C89B229
:103450002046FFF7CFFF10BD10B50446FCF778FEFD
:1034600081B22046FFF7C6FF034608B1184610BDDB
:103470000248FFF7E7FF0346F8E700BFD858000807
:1034800030B589B0294B9A6942F010029A619A6965
:1034900002F010020092009A9A6942F020029A61AA
:1034A0009A6902F020020192019A9A6942F004029C
:1034B0009A619A6902F004020292029A9A6942F0B1
:1034C00008029A619B6903F008030393039B184D5C
:1034D00000224FF400512846FDF79AFC4FF40053A8
:1034E000049301230593002306930223079304A961
:1034F0002846FDF7A3FB4FF44043049303240594AF
:1035000004A92846FDF79AFB48F2FF73049305943B
:1035100004A90848FDF792FB4FF2FF33049305948A
:1035200004A90548FDF78AFB09B030BD0010024030
:103530000010014000080140000C014008B53F4C5C
:10354000E36883F40053E3605A20FDF7E5FAE3688B
:1035500083F40053E3605A20FDF7DEFAE36883F456
:103560000053E3605A20FDF7D7FAE36883F4005371
:10357000E3605A20FDF7D0FAE36883F40053E36078
:103580005A20FDF7C9FAE36883F40053E360E36867
:1035900083F40053E360E36883F40053E360962010
:1035A000FDF7BAFAE36883F40053E3609620FDF771
:1035B000B3FAE36883F40053E3609620FDF7ACFAB6
:1035C000E36883F40053E3609620FDF7A5FAE3680F
:1035D00083F40053E3609620FDF79EFAE36883F4DA
:1035E0000053E3605A20FDF797FAE36883F4005331
:1035F000E3605A20FDF790FAE36883F40053E36038
:103600005A20FDF789FAE36883F40053E3605A20F7
:10361000FDF782FAE36883F40053E3605A20FDF774
:103620007BFAE36883F40053E3605A20FDF774FAF1
:103630004FF44870FDF770FA81E700BF00100140B9
:1036400008B50B480B4B03600B4B436000238360B2
:10365000C3604FF48042026143618361C3610362CE
:10366000FDF7DCFB00B908BDC2210448FFF766FF87
:103670009005002000580040A0860100DC5800089A
:1036800000B595B001220A924FF480330B930021CC
:103690000C910E920222119212934FF4E0131393A5
:1036A0000AA8FEF7EFF848BB0F2305930221069105
:1036B000002307934FF480620892099305A8FEF750
:1036C00007FBF8B9102301930023049301A8FEF728
:1036D000D1FBD8B9FEF7B8FB0E4BA3FB0030800935
:1036E000FDF780FA0420FDF793FA002211464FF00F
:1036F000FF30FDF737FA15B05DF804FB932106485B
:10370000FFF71CFFA0210448FFF718FFA62102487D
:10371000FFF714FFD34D6210DC58000808B5FDF721
:10372000D7F9FFF7ADFFFFF7ABFE00F0B9F8FFF7F1
:1037300087FFFFF703FEFFF71DFEFCE700B583B030
:10374000244B9A6942F001029A619A6902F00102DF
:103750000092009ADA6942F08052DA61DB6903F084
:1037600080530193019B0320FDF7EAF900221146E3
:103770006FF00B00FDF7F6F9002211466FF00A001A
:10378000FDF7F0F9002211466FF00900FDF7EAF9A4
:10379000002211466FF00400FDF7E4F90022114603
:1037A0006FF00300FDF7DEF9002211466FF0010013
:1037B000FDF7D8F9002211464FF0FF30FDF7D2F99E
:1037C000054A536823F0E06343F00073536003B08D
:1037D0005DF804FB001002400000014002680F4B3E
:1037E0009A4200D0704700B587B04FF4406302930F
:1037F000122303930323059302A90948FDF71EFA38
:10380000084BDA6942F48002DA61DB6903F4800371
:103810000193019B07B05DF804FB00BF0058004016
:10382000000C0140001002407047FEE7FEE7FEE793
:10383000FEE770477047704708B5FDF75BF9FDF785
:10384000F8F908BD08B50248FDF7E8FE08BD00BF5D
:10385000A80800200F4B1A6842F001021A6059684C
:103860000D4A0A405A601A6822F0847222F48032AB
:103870001A601A6822F480221A605A6822F4FE0242
:103880005A604FF41F029A60044B4FF000629A6036
:10389000704700BF001002400000FFF800ED00E09C
:1038A00010B5094C002209492046FFF758F908498C
:1038B0002046FFF76BF907492046FFF70BF9204632
:1038C000FFF76BF910BD00BFE405002048010020A0
:1038D000E0000020200100200020704700207047F9
:1038E00010B5074C002207492046FFF7FAF80649B1
:1038F0002046FFF7FEF82046FFF718F9002010BD1C
:10390000E40500204808002008080020104B1A6831
:103910005B689A4212D00E4A53680E49C8545368E5
:103920000133594203F01F0301F01F0158BF4B42FE
:10393000536011685368994206D07047044B1B7A54
:10394000DBB2012BE7D1F8E7134601221A72F4E744
:10395000540300208808002070B506460D46002458
:1039600003E0305DFFF7D2FF01342B68A342F8D8A3
:103970000248FFF7DBF8002070BD00BFE40500201F
:10398000114B1A685B689A4213D00F4A13680F49AB
:10399000C85C13680133594203F01F0301F01F0193
:1039A00058BF4B42136011685368994208D000B267
:1039B0007047054B1B7A002BE7D14FF0FF30704763
:1039C000134600221A72F2E75403002088080020F0
:1039D000094BD3F81832D3F814320BB101207047D9
:1039E00010B50A460146044C2046FFF77AF82046F7
:1039F000FFF785F810BD00BFE405002002680E4BFC
:103A00009A4200D0704700B583B003F5DA33DA6923
:103A100042F40002DA61DB6903F400030193019BC5
:103A2000002211461420FDF79DF81420FDF7CEF872
:103A300003B05DF804FB00BF005C004008B500F275
:103A40002C41D0F85C04FFF7C1F808BD08B500EBC5
:103A50004113D3F83C22D0F85C04FFF7E4F808BD2A
:103A600008B500EB4113DA6BD0F85C04FFF710F9EE
:103A700008BD08B5D0F85C04FFF793F908BD10B590
:103A800004460121D0F85C04FFF779F9D4F85C040E
:103A9000FFF756F910BD000010B50446D0F85C04DD
:103AA000FFF770F9A36923B1024A136943F00603D3
:103AB000136110BD00ED00E008B5D0F85C04FFF71D
:103AC0006AF908BD10B504462048C0F85C44C4F843
:103AD00020021F4B036008234360022383600323FB
:103AE000C36000238361C3610362FDF74BFA30BBFF
:103AF000182300221146D4F82002FDF794FE582323
:103B000000228021D4F82002FDF78DFEC023002280
:103B10008121D4F82002FDF786FE4FF4887300223D
:103B20000121D4F82002FDF77EFE4FF480730022BD
:103B30008221D4F82002FDF776FE002010BD4FF45C
:103B400097710448FFF7FAFCD2E700BFA8080020ED
:103B5000005C0040EC58000808B5D0F82002FDF7E2
:103B60007CFA18B1022803D0022008BD0020FCE72F
:103B70000120FAE710B51C4613462246D0F8200271
:103B8000FDF796FA18B1022803D0022010BD0020DC
:103B9000FCE70120FAE708B5D0F82002FDF7B1FAFA
:103BA00018B1022803D0022008BD0020FCE7012044
:103BB000FAE708B5D0F82002FDF7E0FD18B10228B9
:103BC00003D0022008BD0020FCE70120FAE708B579
:103BD000D0F82002FDF700FE18B1022803D0022021
:103BE00008BD0020FCE70120FAE7D0F8203211F0F0
:103BF000800F06D101F07F0103EB411191F82A02F9
:103C0000704701F07F0103EB411191F82A007047E2
:103C100008B5D0F82002FDF737FA18B1022803D012
:103C2000022008BD0020FCE70120FAE708B5D0F823
:103C30002002FDF7B3FA18B1022803D0022008BD14
:103C40000020FCE70120FAE708B5D0F82002FDF7D4
:103C50007FFA18B1022803D0022008BD0020FCE73B
:103C60000120FAE708B5D0F82002FDF790FA08BD68
:103C700000487047600300207047704712230B8094
:103C8000004870473001002004230B800048704733
:103C90004401002008B50A4628B105490548FFF748
:103CA000EEFA034808BD02490248FFF7E8FAF8E7D0
:103CB000080D00200059000810B5044C0A462146A2
:103CC0000348FFF7DCFA204610BD00BF080D0020B6
:103CD0001859000808B50A4628B105490548FFF7F4
:103CE000CEFA034808BD02490248FFF7C8FAF8E7D0
:103CF000080D00202C59000808B50A4628B10549CE
:103D00000548FFF7BCFA034808BD02490248FFF71F
:103D1000B6FAF8E7080D00203C59000808B50A4635
:103D200028B105490548FFF7AAFA034808BD02492A
:103D30000248FFF7A4FAF8E7080D002048590008E8
:103D4000002103E00B4B5B58435004310A480B4BF6
:103D500042189A42F6D30A4A02E0002342F8043B92
:103D6000084B9A42F9D3FFF775FD00F00FF8FFF703
:103D7000D5FC7047885B0008000000203403002059
:103D8000340300200C0F0020FEE7000070B5002572
:103D90000C4E0D4CA41BA410A54209D101F04AFD04
:103DA00000250A4E0A4CA41BA410A54205D170BDE3
:103DB00056F8253098470135EEE756F825309847F4
:103DC0000135F2E7805B0008805B0008805B00083B
:103DD000845B000803460244934200D1704703F815
:103DE000011BF9E7002B2DE9F0471E46BBBF03F18D
:103DF00000431E4600232D2388B0149FDDE9121ACC
:103E000027F02007462F1446109D0B7004D0452F35
:103E100000D10135022300E0032307AA049206AA79
:103E2000CDE902A2CDE900352246334600F0A8FBD9
:103E3000472F804602D1119BDB0726D5462F08EB82
:103E4000050911D198F80030302B0AD10022002347
:103E500020463146FCF7A8FD18B9C5F10105CAF89E
:103E60000050DAF800309944002200232046314601
:103E7000FCF79AFD38B93022079B4B4505D2591CF7
:103E800007911A70F8E7CDF81C904046079B159AE9
:103E9000A3EB0803136008B0BDE8F087F7B500296D
:103EA000B4BF2D232B230446B8BF4942092904F887
:103EB000022B437021DD0DF107031F460A2691FBFB
:103EC000F6F506FB1511092D01F1300103F8011C6F
:103ED00003F1FF32294609DC3031023B02F8011CB4
:103EE000BB42224604D3101A03B0F0BD1346E6E7E6
:103EF00013F8012B04F8012BF2E7302319448370E7
:103F0000021DC170EFE700002DE9F04F91B00C46A3
:103F10001A9F93461E46054601F0E6F803681846C8
:103F20000993FCF715F900230E933B680A900733B9
:103F300023F0070303F1080294F81880D4F800A0D6
:103F40003A60D3E90023C4E91223D4E9127929F0B5
:103F500000430B934FF0FF32A64B38460B99FCF70A
:103F600055FD68BB4FF0FF32A24B38460B99FCF76A
:103F70002FFD28BB0022002338464946FCF71EFDD2
:103F800010B12D2384F843309B4F9C4BB8F1470F61
:103F900098BF1F4603234FF0000923612AF0040352
:103FA000236000965B460FAA2146284600F0E2F9FE
:103FB000013040F090804FF0FF3011B0BDE8F08F3D
:103FC0003A464B4638464946FCF720FD10B18C4F27
:103FD0008C4BDBE763684AF48062591C0DA80EA97C
:103FE00040D1062363604FF0000C0DF13303CDE99F
:103FF000012363682260CDE9030800933A464B46EB
:10400000CDE9051C2846FFF7EDFE08F0DF03472B3E
:10401000074609D10D9BD81C02DB6268934247DD3D
:10402000A8F102085FFA88F8B8F1650F0D9924D855
:104030000139424604F150000D91FFF72FFF0E9A0F
:1040400081461318012A236102DC2268D10701D5B9
:10405000013323619DF83330002BA2D02D2384F847
:1040600043309EE7B8F1670F00F06E81B8F1470F5B
:10407000B9D1002BB7D10123B4E7B8F1660F19D13C
:10408000002963680CDD216113B92268D20702D5CB
:1040900001330B4423610D9B4FF00009A365D9E761
:1040A00013B92268D00701D50233F3E70123F1E702
:1040B0004FF06708DDE90D32934205DB226823618A
:1040C000D107E8D50133E5E7002BCCBF0123C3F1CD
:1040D00002031344DEE723685A0507D423693A46EE
:1040E00059462846B047013029D164E7B8F1650F39
:1040F00040F2D780D4E9120100220023FCF754FCDF
:1041000088B30123404A59462846B04701303FF45E
:1041100052AFDDE90D239A4202DB2368D8070ED5A2
:10412000DDE9092359462846B04701303FF443AF43
:10413000002704F11A080E9B013BBB4209DC2368EF
:104140009F0700F1FD80E0680F9B9842B8BF1846BA
:1041500033E70123424659462846B04701303FF431
:104160002AAF0137E7E70D9B002B2BDC0123264A02
:1041700059462846B04701303FF41DAF0D9B23B987
:104180000E9B13B92368D907D9D5DDE90923594610
:104190002846B04701303FF40EAF4FF0000804F15D
:1041A0001A090D9B5B42434501DC0E9B97E70123F7
:1041B0004A4659462846B04701303FF4FCAE08F164
:1041C0000108EEE70E9AA36D9A42A8BF1A46002A8C
:1041D000904607DD134659463A462846B047013017
:1041E0003FF4E9AE04F11A034FF0000A28EAE87838
:1041F0000B9315E0FFFFEF7F5C590008585900084A
:1042000064590008605900086859000801230B9A96
:1042100059462846B04701303FF4CDAE0AF1010AB5
:10422000D4F85890A9EB08035345EFDCDDE90D23E2
:104230009A424F4414DB2368DA0711D40E9B0D9980
:10424000A3EB0902A3EB01099145A8BF9146B9F17F
:10425000000F0DDC002729EAE97904F11A0818E0BB
:10426000DDE9092359462846B0470130E6D1A2E6E8
:104270004B463A4659462846B0470130EAD19AE6BD
:104280000123424659462846B04701303FF493AED9
:104290000137DDE90D239B1AA3EB0903BB42EFDCD9
:1042A0004DE70E9A012A01DCDB0738D501233A4697
:1042B00059462846B04701303FF47DAEDDE9092379
:1042C00059462846B047013007F101073FF473AE65
:1042D000D4E912010E9B002203F1FF380023FCF702
:1042E00063FBC0B943463A4659462846B0470130B9
:1042F0000DD160E60123424659462846B0470130B9
:104300003FF459AE01370E9B013BBB42F2DC4B46FA
:1043100004F15002E4E6002704F11A08F3E7012350
:10432000E1E70123424659462846B04701303FF4B1
:1043300042AE0137E3680F9A9B1ABB42F1DC02E7F9
:10434000002704F11908F5E7002B3FF494AE4FF075
:10435000000CCDE9051C0DF133012260CDE9030805
:10436000CDE9012100933A464B462846FFF73AFD36
:1043700007464FE62DE9F04791461F468A680B69CC
:1043800006469342B8BF1346C9F8003091F843205F
:104390000C46DDF8208012B10133C9F800302368E3
:1043A000990642BFD9F800300233C9F800302568B9
:1043B00015F0060507D104F1190AE368D9F80020C1
:1043C0009B1AAB4229DC94F843302268003318BFB3
:1043D000012392062ED404F1430239463046C047E9
:1043E000013021D02368E56803F00603042B18BFD1
:1043F0000025D9F800204FF0000908BFAD1AA368C6
:10440000226908BF25EAE5759342C4BF9B1AED18DF
:104410001A344D451AD1002008E00123524639468E
:104420003046C047013003D14FF0FF30BDE8F08780
:104430000135C2E73020E11881F843005A1C94F896
:1044400045102244023382F84310C4E70123224678
:1044500039463046C0470130E6D009F10109D8E7B6
:104460002DE9F74F03690C698046A342C0F28480AE
:10447000013C01F1140700F1140657F8245056F8D6
:1044800024000135B0FBF5F54FEA840C06EB0C0374
:1044900007EB0C0901939DB34FF0000A3846B6466E
:1044A000D34650F8042B93B205FB03A3120C4FEA3A
:1044B000134A05FB02A29BB2ABEB0303DEF800B08C
:1044C0004FEA124A1FFA8BFB5B441FFA82FBDEF8AD
:1044D00000208145CBEB124202EB23429BB243EA20
:1044E00002434FEA224B4EF8043BDAD256F80C3026
:1044F00033B9019B043B9E421A4631D3C8F81040A1
:10450000404601F027F8002826DB30464FF0000C2B
:10451000013557F8041BD0F800E08BB2ACEB030375
:104520001FFA8EF213440A0CC2EB1E4202EB234226
:104530009BB243EA0243B9454FEA224C40F8043BA0
:10454000E7D256F8242006EB84032AB9043B9E42A6
:104550001A460BD3C8F81040284603B0BDE8F08FC8
:104560001268043B002AC9D1013CC4E71268043B2D
:10457000002AEFD1013CEAE70020EEE7000000004E
:104580002DE9F04F16461F46456A95B00446DDF802
:104590008480CDE902673DB9102000F0B3FD606270
:1045A000C0E901550560C560636A196851B15A6870
:1045B000012393404A608B60204600F0EAFD002210
:1045C000636A1A603B1EAFBF0023012223F0004341
:1045D0000393ACBFC8F80030C8F80020AE4BDDF83C
:1045E0000C8033EA08031BD142F20F73209A136048
:1045F000029B23B9C8F31300002800F04585229BD5
:1046000053B9A64B21E0A64B06930833229A1360B8
:10461000069815B0BDE8F08FA04B06930333F5E77D
:10462000DDE902670022002330463946FCF7BCF979
:10463000824660B10123209A1360229B002B00F078
:104640002085984B229A1360013B0693E0E712AB5A
:10465000019313AB009332463B46204600F0F2FF35
:10466000C8F30A558346002D7DD0B046C7F3130327
:1046700043F07F5949F44019A5F2FF35CDF840A029
:104680000022894B40464946FBF76EFD7CA3D3E9E7
:104690000023FBF721FF7CA3D3E90023FBF766FD92
:1046A000064628460F46FBF7ADFE79A3D3E9002363
:1046B000FBF712FF02460B4630463946FBF756FD24
:1046C00006460F46FCF7B8F9002282460023304622
:1046D0003946FCF773F948B15046FBF793FE324672
:1046E0003B46FCF761F908B90AF1FF3ABAF1160F37
:1046F0005AD8DDE902236D4901EBCA01D1E9000175
:10470000FCF77AF9002851D000230AF1FF3A0D9303
:10471000129B5D1B6B1E079343BF0023C5F101096C
:1047200007934FF00009BAF1000F41DB079BCDF86A
:1047300030A053440793002308931E9B092B00F2DB
:104740008F80052BC4BF043B1E931E9BC8BF002552
:10475000A3F10203D8BF0125032B00F28D80DFE80F
:1047600003F07B7D2F6FDDE912531D4405F23240CB
:10477000202813DDC0F14000029B08FA00F805F282
:10478000124023FA00F048EA0000FBF72BFE012359
:104790008046A1F1F879013D109371E7029BC0F1C9
:1047A000200003FA00F0F0E70123B0E70D90AFE737
:1047B000CAF1000308930023A9EB0A090C93BCE794
:1047C000012309931F9B002B74DD9846049300225C
:1047D000666A7260042202F11400984271686ED910
:1047E000204600F0A2FC636A30601B68B8F10E0F2F
:1047F000069300F2ED80002D00F0EA80DDE902234F
:10480000BAF1000FCDE90E2377DD284A0AF00F0335
:104810004FEA2A1602EBC303F006D3E90023CDE9E1
:104820000A2368D5DDE90E01214B0325D3E90823CE
:10483000FBF77CFFCDE9020106F00F061C4F4FE0AD
:10484000012309931F9B534403F10108049343463A
:10485000012BB8BF0123BAE70023B2E70023F0E73A
:104860000125002309951E934FF0FF330022049386
:10487000984612231F92AAE701230993F4E700BF89
:1048800061436F63A787D23FB3C8608B288AC63F56
:10489000FB799F501344D33F0000F07F7359000809
:1048A0006A590008695900080000F83FA05900083B
:1048B000785900080123049398461A46DAE7013133
:1048C0007160520087E7F10708D5DDE90A01D7E9F1
:1048D0000023FBF701FECDE90A0101357610083708
:1048E000002EF0D1DDE90A23DDE90201FBF71EFF0E
:1048F000CDE902011BE00225A0E700F0A480DDE97C
:104900000E01CAF10006A04B06F00F0203EBC20332
:10491000D3E90023FBF7E0FD02250023CDE90201E6
:104920009A4F3611002E40F08380002BE0D10D9B72
:10493000002B00F08A80DDE90223CDE90A23DDE9BE
:104940000A010022924BFCF739F800287DD0B8F11B
:10495000000F7AD0049B002B36DDDDE90A0100222E
:104960008C4BFBF7B9FDCDE90201049E0AF1FF373C
:1049700001352846FBF746FDDDE90223FBF7ACFDD8
:104980000022854BFBF7F2FBA1F15075CDE90A013E
:104990000B95002E5CD1DDE9020100227F4BFBF775
:1049A000E3FB0A9A2B46CDE90201FCF725F8002823
:1049B00040F08182DDE902010A9A05F10043FBF72C
:1049C000FDFF002840F07582DDE90E23CDE90223CA
:1049D000139B002BC0F24B81BAF10E0F00F34781FD
:1049E000694B03EBCA03D3E90023CDE904231F9BE2
:1049F000002B80F2D780B8F1000F00F3D38040F095
:104A00005782DDE904010022644BFBF765FDDDE917
:104A10000223FBF7E7FF46464746002840F02D8279
:104A2000069B069A5D1C31230AF1010A137028E2E5
:104A3000F20705D5D7E90023FBF74EFD0123013529
:104A4000761008376EE7022571E75746464690E72D
:104A50004D4B03EBC60353E90201099B002B48D0E1
:104A600002460B4600204E49FBF760FEDDE90A23B3
:104A7000FBF77AFBCDE90A01069DDDE90201FBF7B0
:104A8000DBFF1190FBF7BEFC02460B46DDE902019D
:104A9000FBF76AFB119BCDE90201303305F8013BBE
:104AA000DDE90A23FBF78AFF002863D1DDE9022351
:104AB00000203749FBF758FBDDE90A23FBF77EFFAF
:104AC000002840F0B580069BEB1A9E427FF77CAF32
:104AD000DDE90A0100222F4BFBF7FEFC0022CDE9A5
:104AE0000A01DDE902012B4BFBF7F6FCCDE90201DF
:104AF000C3E7DDE90A23FBF7EFFC069BCDE90A01DA
:104B00009D191E46DDE90201FBF796FF1190FBF7A8
:104B100079FC02460B46DDE90201FBF725FB119B00
:104B2000CDE90201303306F8013BAE424FF00002FE
:104B300024D1DDE90A011A4BFBF718FB02460B46AC
:104B4000DDE90201FBF758FF002871D1DDE90A23F6
:104B500000201349FBF708FB02460B46DDE9020182
:104B6000FBF72CFF00283FF42FAF15F8013C6A1E1D
:104B7000302B01D0BA464AE01546F6E7054BFBF765
:104B8000ABFCCDE90201BDE7A05900087859000847
:104B90000000F03F0000244000001C4000001440D2
:104BA0000000E03F069DDDE90267DDE904233046B1
:104BB0003946FBF7BBFDFBF73FFF8146FBF722FCC5
:104BC000DDE90423FBF788FC02460B4630463946F4
:104BD000FBF7CAFA09F1300605F8016B069E02469A
:104BE000AE1BB0450B4635D1FBF7C0FADDE9042317
:104BF00006460F46FBF700FFC8B9DDE9042330463F
:104C00003946FBF7D1FE10B119F0010F0FD159460B
:104C1000204600F0BEFA0023209A2B700AF101030F
:104C20001360229B002B3FF4F3AC1D60F0E4574669
:104C300015F8012C6B1E392A06D1069A9A4207D123
:104C400030231370134601371A7801321A7091E736
:104C50001D46EDE70022994BFBF73EFC00220023A6
:104C600006460F46FBF7A0FE00289ED0CFE7099A24
:104C7000002A00F088801E9A012A6DDC109A002A12
:104C800066D003F233434D46089E079A01211A4429
:104C900020469944079200F01CFB0746002D0BDDCF
:104CA000079B002B08DDAB42A8BF2B46079AA9EB58
:104CB0000309ED1AD31A0793089BEBB1099B002B4C
:104CC00065D08EB139463246204600F0A1FB5A46E7
:104CD00001460746204600F005FB59460A9020464B
:104CE00000F057FA0A9B9B46089B9A1B04D0594632
:104CF000204600F08DFB83460121204600F0E9FAB2
:104D00000C9B0646002B00F0C6811A460146204641
:104D100000F07EFB1E9B0646012B3EDC029B002B17
:104D200037D1039BC3F31303002B34D1039B23F030
:104D300000431B0D1B052BB1079B09F10109013332
:104D40000793012308930C9B002B28D101202EE010
:104D5000129BC3F1360396E7089B08F1FF36B34276
:104D6000B7BF089B9E1BF21A0C9BBFBF08969B18EF
:104D70000C930026B8F1000FB9BFA9EB080500237A
:104D80004D46434681E7089E4D46099F86E7089AAF
:104D9000ADE70023D6E7029BD4E7002308933369ED
:104DA00006EB8303186900F046FAC0F12000079B68
:104DB000184410F01F0047D0C0F12003042B3BDD46
:104DC000079BC0F11C008144054403440793B9F1DB
:104DD000000F05DD59464A46204600F067FB834632
:104DE000079B002B05DD31461A46204600F05EFB8E
:104DF00006460D9B53B33146584600F0ABFB0028E6
:104E000024DA002359460A22204600F0D9F9099BEA
:104E10000AF1FF3A8346002B00F044810023394613
:104E20000A22204600F0CCF9049B0746002B4DDCFB
:104E30001E9B022B4ADD11E0C9D0079A1C331A448D
:104E400099441D441346C1E70346F6E7B8F1000F45
:104E500036DC1E9B022B33DDCDF81080049B63B93A
:104E600031460522204600F0ABF901460646584679
:104E700000F070FB00283FF7D3AD1F9B069D6FEA43
:104E8000030A4FF000093146204600F082F9002F56
:104E90003FF4BDAEB9F1000F05D0B94503D0494686
:104EA000204600F076F93946204600F072F9AEE669
:104EB00000263746E1E7BA463746B1E50000244010
:104EC000099BCDF81080002B00F0F380002D05DD4C
:104ED00039462A46204600F0E9FA0746089B002B8F
:104EE0004CD07968204600F020F905463A6907F170
:104EF0000C01023292000C3000F00CF9012229461C
:104F0000204600F0D3FAB9460746069B0793029B5A
:104F100003F00103089331465846FFF7A1FA4946CA
:104F2000054600F13008584600F014FB3A4602905E
:104F30003146204600F028FBC368024603BB014609
:104F40000990584600F006FB0346099A1146204690
:104F5000099300F01EF9099BA3B91E9A92B9089A09
:104F600082B9B8F1390F29D0029B002B01DD05F180
:104F70003108079B5D1C83F8008084E73846C2E750
:104F80000123E3E7029A002A04DB23D11E9A0ABB1D
:104F9000089AFAB9002BECDD59460122204600F0B0
:104FA00085FA3146834600F0D5FA002803DCE0D1CB
:104FB00018F0010FDDD0B8F1390FD8D1079B079A4F
:104FC0005D1C3923137015F8013C6A1E392B4DD036
:104FD000013352E0079A002B02F1010506DDB8F11A
:104FE000390FEBD008F10108079BC4E7069B049A30
:104FF000EB1A934205F8018C21D0594600230A226E
:10500000204600F0DDF8B94583464FF000034FF02D
:105010000A024946204605D100F0D2F881460746EB
:10502000079578E700F0CCF83946814600230A223C
:10503000204600F0C5F80746F2E74FF00009594650
:105040000122204600F032FA3146834600F082FA0F
:105050000028B8DC02D118F0010FB4D115F8013CDA
:105060006A1E302B7FF40FAF1546F7E7069B93427D
:1050700005D13123069A0AF1010A137003E7154698
:10508000A1E7174BFFF7E1BA229B002B7FF4BBAAE5
:10509000144BFFF7DABA1E9B012B7FF73FAE0C9B38
:1050A000089353E6049B002B03DC1E9B022B3FF767
:1050B000D5AE069D31465846FFF7D2F9069B00F162
:1050C000300805F8018B049AEB1A9A42B5DD59466F
:1050D00000230A22204600F073F88346EAE700BF67
:1050E000685900086A590008044B1B68186A044B89
:1050F000002808BF1846F030704700BF6401002048
:10510000C8010020024B0146186800F0F9BA00BF40
:105110006401002010B5431E0A44914200D110BD25
:1051200011F8014B03F8014FF7E770B5456A0446E3
:105130000E463DB91020FFF7E5FF6062C0E901555A
:105140000560C560656AEB6883B1636ADB6853F824
:105150002600B8B9012101FA06F56A1D9200204621
:1051600000F0BFFA60B1C0E901650EE02122042120
:10517000204600F0B6FA636AE860DB68002BE4D1F1
:10518000002070BD026843F826200023C0E90333E5
:10519000F7E770B5446A06460D463CB91020FFF7A4
:1051A000B1FF7062C0E901440460C4603DB1736A3C
:1051B0006A68DB6853F82210296043F8225070BDFA
:1051C0002DE9F0411F4606460C4600230D6901F10A
:1051D000140CDCF80000013381B202FB0171000CF9
:1051E0000F0C02FB007089B201EB00419D424FEAB7
:1051F00010474CF8041BECDCD7B1A368AB4212DCBF
:10520000616830460131FFF790FF8046226904F162
:105210000C01023292000C30FFF77CFF2146304631
:10522000FFF7B7FF444604EB850301355F61256155
:105230002046BDE8F081020C12040346B2B9030413
:10524000102013F07F4F04BF1B02083013F0704F83
:1052500004BF1B01043013F0404F04BF9B00023019
:10526000002B06DB5B0003D5013070470020E8E728
:10527000202070470368014613F007020BD0DA07BD
:1052800023D4980749BF5B089B0801200B605CBFD3
:105290000B600220704798B2A8B910201B0C13F0C5
:1052A000FF0F04BF1B0A08301A0704BF1B09043094
:1052B0009A0704BF9B080230DA0702D45B0806D0C5
:1052C00001300B6070471046E9E70020704720204E
:1052D000704710B50C460121FFF727FF01224461FA
:1052E000026110BD2DE9F74F14460A69236988460B
:1052F0009A42BEBF0B46A0461C46D8F81070D4F8A0
:105300001090D8F80830D8F8041007EB0906B3421B
:10531000B8BF0131FFF709FF00F114052B46002249
:1053200005EB860E734516D304F1140208F114013F
:1053300002EB890301EB87070093009B01929342E4
:105340000CD8002E03DD5EF8043D002B5DD0066115
:1053500003B0BDE8F08F43F8042BE3E7B2F800B0E8
:10536000BBF1000F23D08946AC464FF0000859F836
:10537000044BDCF800A0A3B21FFA8AFA0BFB03A3CC
:105380004FEA144ADCF8004043444FEA14480BFB50
:105390000A84E24604EB13449BB243EA04434F45BC
:1053A0004FEA14484AF8043B2BD8CCF80480019B00
:1053B0000432B3F802A0BAF1000F20D08946A84603
:1053C0004FF0000B2B68B9F800C0B8F802409BB250
:1053D0000AFB0C44C4465C4443EA04434CF8043BD7
:1053E00059F8043BB8F804B01B0C0AFB03B34F4553
:1053F00003EB14434FEA134B05D8C8F804300435C7
:105400009BE7D446B3E7E046DDE7013E99E70000BD
:105410002DE9F843154612F0030206460F4607D061
:10542000214C013A002354F82220FFF7C9FE074619
:10543000AD1035D0746A3CB91020FFF763FE70627E
:10544000C0E901440460C460D6F82480D8F808405C
:105450004CB940F271213046FFF73BFF0023044670
:10546000C8F8080003604FF00008EB070AD539467A
:1054700022463046FFF736FF814639463046FFF771
:1054800088FE4F466D100BD0206838B92246214661
:105490003046FFF727FF2060C0F800800446E4E7AD
:1054A0003846BDE8F88300BF685A00082DE9F04788
:1054B0000C460746164623694FEA621A0AEB0309AF
:1054C0004968A36809F10105AB4232DB3846FFF7B2
:1054D0002CFE002380461A4600F1140153452BDBB5
:1054E00020692AEAEA7A04F1140316F01F0201EB9C
:1054F0008A0103EB800C25D00020C2F1200E8A46E1
:105500001E68964030434AF8040B53F8040B9C4540
:1055100020FA0EF014D8486008B109F10205013DE7
:105520003846C8F810502146FFF733FE4046BDE824
:10553000F08701315B00C7E741F823200133CDE755
:105540005146DCE7043953F8042B9C4541F8042FFD
:10555000F9D8E4E703690A6930B59B1A0CD19200C7
:10556000143014318418114454F8045D51F8042D9A
:10557000954203D005D30123184630BDA042F3D392
:10558000FAE74FF0FF33F7E72DE9F0470D460746FE
:10559000114628461446FFF7DDFF061E08D13146A6
:1055A0003846FFF7C2FD0123C0E90436BDE8F087A5
:1055B000A4BF23462C4638466168A6BF1D46002678
:1055C0000126FFF7B2FD4FF0000EC6602B69266979
:1055D00004F1140205F1140902EB860709EB8308B4
:1055E00000F1140152F804AB59F8045B1FFA8AF376
:1055F0007344ACB21B1B2C0CC4EB1A4404EB2344C5
:105600009BB24FEA244EC84543EA0444944641F80D
:10561000044BE7D8BC4504D351F8043D83B106617F
:10562000C4E75CF8044BA2B27244131403EB1443B6
:1056300092B242EA03424FEA234E41F8042BE9E7D3
:10564000013EE9E72DE9F3411C46DDE9086501214A
:105650009046FFF76AFDC4F31302C4F30A540746E9
:1056600034BB0192B8F1000227D002A840F8082DFF
:10567000FFF700FE0099F0B1019AC0F1200302FA91
:1056800003F30B43C2407B610192019B002B14BFCB
:1056900002210121BB613961C4B1A4F23344044445
:1056A0003460C0F135002860384602B0BDE8F081B2
:1056B00042F48012D5E77961E7E701A8FFF7DAFD48
:1056C0000121019B39617B612030E5E7A0F2324086
:1056D00007EB810330601869FFF7ADFDC0EB4110A7
:1056E000E1E738B502FB01F4214600F009F8054670
:1056F00018B122460021FEF76DFB284638BD000098
:1057000070B5CD1C25F0030508350C2D38BF0C25D0
:10571000002D064601DBA94203D90C23336000208B
:1057200070BD00F069F8214A1468214691B9204CF7
:1057300023681BB9304600F03DF82060294630460A
:1057400000F038F8431C24D10C233046336000F0BD
:1057500054F8E4E70B685B1B18D40B2B0FD90B60D4
:10576000CC18CD50304600F048F804F10B00231D52
:1057700020F00700C31AD3D05A42E250D0E74B685A
:105780008C4216BF636013600C46EBE70C46496819
:10579000CCE7C41C24F00304A04205D0211A3046F3
:1057A00000F008F80130CFD02560DBE7800500204D
:1057B0008405002038B50023054C054608462360C3
:1057C00000F02AF8431C02D1236803B12B6038BDD6
:1057D000080F002082B001B901A942B14BB1137882
:1057E0000B601278101C18BF012002B070471046E1
:1057F000FBE76FF00100F8E77047704749B1FF2AF7
:105800008BBF8A230A700360012088BF4FF0FF30EE
:105810007047084670470000044A05491368002B8A
:1058200008BF0B46184410601846704788050020D2
:1058300058030020F8B500BFF8BC08BC9E4670476E
:0C584000F8B500BFF8BC08BC9E467047DD
:1058500002030405060708090A0B0C0D0E0F1010B1
:10586000010200000000000000000000010203042B
:10587000060708090000000001020304596F7520A3
:10588000707265737365642031210000426C696E2B
:105890006B696E67204C454420362074696D6573D2
:1058A0002E0000005468726F77696E67207465730C
:1058B00074696E6720657863657074696F6E210026
:1058C00048656C70206E6F7420737570706F7274A1
:1058D00065642079657421000D0A00002E2E2F5377
:1058E00072632F6D61696E2E630000002E2E2F53A0
:1058F00072632F757362645F636F6E662E63000060
:1059000053544D3332205669727475616C20436F65
:105910006D506F727400000053544D6963726F656F
:105920006C656374726F6E69637300003030303081
:1059300030303030303031410000000043444320EB
:10594000436F6E666967000043444320496E746587
:105950007266616365000000494E4600696E66002C
:105960004E414E006E616E003000496E66696E6990
:105970007479004E614E00000080E03779C34143E6
:10598000176E05B5B5B89346F5F93FE9034F384DA5
:10599000321D30F94877825A3CBF737FDD4F157551
:1059A000000000000000F03F000000000000244064
:1059B00000000000000059400000000000408F403F
:1059C000000000000088C34000000000006AF840AA
:1059D0000000000080842E4100000000D0126341CE
:1059E0000000000084D797410000000065CDCD4144
:1059F000000000205FA00242000000E87648374225
:105A0000000000A2941A6D42000040E59C30A242C2
:105A10000000901EC4BCD64200003426F56B0C4337
:105A20000080E03779C3414300A0D88557347643DE
:105A300000C84E676DC1AB43003D9160E458E1433F
:105A4000408CB5781DAF154450EFE2D6E41A4B44B4
:105A500092D54D06CFF08044F64AE1C7022DB544F9
:105A6000B49DD9794378EA4405000000190000008C
:105A70007D0000004300504F534958002E00002085
:105A800020202020202020202828282828202020EE
:105A9000202020202020202020202020202020889E
:105AA0001010101010101010101010101010100402
:105AB0000404040404040404041010101010101052
:105AC0004141414141410101010101010101010146
:105AD000010101010101010101011010101010105C
