:020000040800F2
:10000000005000204D350008F92F0008FD2F000892
:100010000130000805300008093000080000000029
:100020000000000000000000000000000D3000088B
:1000300011300008000000001530000819300008D9
:100040009535000895350008953500089535000868
:100050009535000895350008953500089535000858
:100060009535000895350008953500089535000848
:100070009535000895350008953500089535000838
:100080009535000895350008953500089535000828
:10009000253000089535000895350008953500088D
:1000A0009535000895350008953500089535000808
:1000B00095350008953500089535000895350008F8
:1000C00095350008953500089535000895350008E8
:1000D00095350008953500089535000895350008D8
:1000E000953500089535000895350008000000009A
:1000F0000000000000000000000000000000000000
:0C01000000000000000000005FF808F1A3
:10010C0010B5054C237833B9044B13B10448AFF345
:10011C0000800123237010BD64010020000000004A
:10012C00E4350008084B10B51BB108490848AFF37B
:10013C0000800848036803B910BD074B002BFBD0A7
:10014C00BDE81040184700BF000000006801002007
:10015C00E43500086401002000000000034613F899
:10016C00012B002AFBD1181A0138704710B5044630
:10017C000E4B18784FF47A73B3FBF0F30C4A1068FB
:10018C00B0FBF3F000F09EF858B90F2C0BD80022FE
:10019C0021464FF0FF3000F057F8044B5C60002014
:1001AC0010BD012010BD012010BD00BF00000020BB
:1001BC001C01002008B5074A136843F010031360B4
:1001CC00032000F02FF80020FFF7D0FF02F098FE7C
:1001DC00002008BD00200240034A13680349097837
:1001EC000B441360704700BFB003002000000020D8
:1001FC00014B1868704700BFB003002038B50446A7
:10020C00FFF7F6FF0546B4F1FF3F02D0044B1B7815
:10021C001C44FFF7EDFF401B8442FAD838BD00BFE9
:10022C0000000020074AD36823F4E0631B041B0C76
:10023C00000200F4E060184340F0BF6040F400306E
:10024C00D060704700ED00E030B4164BDB68C3F3B0
:10025C000223C3F10704042C28BF04241D1D062D02
:10026C0001D9DD1E00E00025012303FA04F4013C52
:10027C002140A940AB40013B1A400A43002806DA52
:10028C0000F00F001201D2B2074B1A5407E0120112
:10029C00D2B200F1604000F5614080F8002330BC20
:1002AC00704700BF00ED00E014ED00E0420900F0E3
:1002BC001F00012303FA00F0014B43F822007047A2
:1002CC0000E100E00138B0F1807F0AD2064B5860A3
:1002DC00F021064A82F823100020986007221A6049
:1002EC0070470120704700BF10E000E000ED00E017
:1002FC00042805D1054A136843F0040313607047C2
:10030C00024A136823F004031360704710E000E006
:10031C00704700BF08B5FFF7FBFF08BDF0B583B011
:10032C0000263446D5E00122A2400B6813409A42C5
:10033C0040F0CE804D68122D2DD00BD8022D27D039
:10034C0003D85DB3012D1ED035E0032D30D0112D17
:10035C001BD030E0614FBD4220D008D8A7F58017E4
:10036C00BD421BD007F58037BD4224D116E05C4F4F
:10037C00BD4213D007F58037BD420FD0A7F58017CB
:10038C00BD4218D10AE0CE6815E0CE68043612E002
:10039C00CE6808360FE0CE680C360CE08D684DB197
:1003AC00012D02D10261082605E04261082602E017
:1003BC00002600E00426FF2B01D8864601E000F160
:1003CC00040EFF2B01D8A20002E0A4F10802920057
:1003DC00DEF800700F25954027EA050506FA02F2B3
:1003EC002A43CEF800204A6812F0805F70D03D4A54
:1003FC00956945F001059561926902F0010201923F
:10040C00019AA708BD1C384A52F8255004F0030283
:10041C0092004FF00F0E0EFA02FE25EA0E0E334D2F
:10042C00A8420DD005F58065A8420BD005F5806576
:10043C00A84209D005F58065A84207D1032506E03E
:10044C00002504E0012502E0022500E0042505FA60
:10045C0002F24EEA02020237234D45F827204A6881
:10046C0012F4803F05D005F580652A681A432A608E
:10047C0004E01F4D2A6822EA03022A604A6812F43B
:10048C00003F04D01A4D6A681A436A6004E0184DA4
:10049C006A6822EA03026A604A6812F4801F04D078
:1004AC00134DAA681A43AA6004E0114DAA6822EA07
:1004BC000302AA604A6812F4001F04D00C4DEA68CB
:1004CC001343EB6004E00A4DEA6822EA0303EB6095
:1004DC0001340F2C7FF627AF03B0F0BD00002110C4
:1004EC0000003110001002400000014000080140E3
:1004FC00000401400AB101617047090401617047B1
:10050C00002800F0A28070B5044690F83D3013F03E
:10051C00FF0F04D1002380F83C3002F041FD24236E
:10052C0084F83D302268136823F00103136001F056
:10053C0031F86268474B9A4205D8474B98428CBFBA
:10054C000023012304E0454B98428CBF0023012378
:10055C00002B7CD1424BA3FB00239B0C22685360E5
:10056C00216865683B4A954201D8013308E04FF495
:10057C00967202FB03F33B4AA2FB03239B09013354
:10058C000B6222686168334B99420AD801384900E2
:10059C00B0FBF1F00130C0F30B00042838BF04208D
:1005AC0035E0A5685DB9431E01EB4106B3FBF6F3DC
:1005BC000133C3F30B03B3FA83F35B090CE0431E63
:1005CC0001EB810606EB8606B3FBF6F30133C3F3AE
:1005DC000B03B3FA83F35B09C3B955B9431E01EBA3
:1005EC004100B3FBF0F00130C0F30B0040F40040CD
:1005FC000DE0431E01EB810000EB8000B3FBF0F03B
:10060C000130C0F30B0040F4404000E00120D06109
:10061C002268E169236A0B43136022682169E3684D
:10062C000B43936022686169A3690B43D360226812
:10063C00136843F00103136000202064202384F826
:10064C003D30206384F83E0070BD012070470120CE
:10065C0070BD00BFA08601007F841E00FF083D0016
:10066C0083DE1B43D34D6210002867D0F0B587B0F2
:10067C00044690F8293413F0FF0F04D1002380F8BE
:10068C00283402F0ABFD032384F82934206801F0F0
:10069C002DF8254655F8107B6E460FCD0FC62B68EE
:1006AC003360231D0ECB384601F00EF80021206874
:1006BC0001F026F8002310E004EB4312012182F82C
:1006CC00291082F828309386002182F82B10916330
:1006DC00D1639A1C5201A15001330E2BECD900238B
:1006EC0012E004EB4312002182F8291282F828321E
:1006FC00938682F82B12C2F83812C2F83C1203F11E
:10070C0012025201A15001330E2BEAD9254655F89D
:10071C00107B6E460FCD0FC62B683360231D0ECB9E
:10072C00384600F0EFFF002584F82450012384F8AC
:10073C002934206801F00EFB284601E001207047A7
:10074C0007B0F0BD90F82834012B10D010B504463A
:10075C00012180F8281402F08FFE206801F0F8FACD
:10076C00206800F0B9FF002084F8280410BD022096
:10077C00704700BF90F82834012B0DD010B50446FB
:10078C00012380F8283480F82410006801F0DAFA8C
:10079C00002084F8280410BD0220704738B54DB2F3
:1007AC00002D05DA01F07F0464012834044405E0CF
:1007BC0001F07F04640104F50A74044401F07F0124
:1007CC002170ED0F65702261E37090F82834012BD5
:1007DC000BD00546012380F828342146006800F030
:1007EC00A7FF002085F8280438BD022038BD00BFC3
:1007FC004AB2002A05DA01F07F035B012833034477
:10080C0005E001F07F035B0103F50A73034401F07B
:10081C007F011970D20F5A7090F82824012A0CD03D
:10082C0010B50446012280F828241946006801F00E
:10083C001DF9002084F8280410BD0220704700BF69
:10084C0070B501F07F056C0104F50A710144044494
:10085C00C4F83C2205F11202520186188350002381
:10086C00736084F8293284F828521DB9006801F0AD
:10087C008DFA02E0006801F089FA002070BD00BF1B
:10088C0001F00F01123100EB41108088704700BF5E
:10089C0070B501F07F056C0104F12801014404449A
:1008AC00E263AA1C52018618835000237360012353
:1008BC0084F8293084F828501DB9006801F066FAD4
:1008CC0002E0006801F062FA002070BD70B582B0E1
:1008DC0005460023ADF80630ADF8043016E2BDF83D
:1008EC00064014F00F0440F0C880BDF8063003F049
:1008FC0010039BB29BBB03889BB223F4E14323F010
:10090C0070039BB203802968B1F850309AB295F805
:10091C00283002EBC303023301EB4303D3F800345A
:10092C00C3F309036B64EA6B1344EB6300212846A1
:10093C0002F086FC95F8243013F0FF0F00F0E681EE
:10094C002B6C002B40F0E2812A6895F8243043F0A0
:10095C008003A2F84C30002385F82430D6E10388BC
:10096C009BB2ADF80430BDF8043003F400639BB2C5
:10097C0003B3B0F850309BB295F8282203EBC203B6
:10098C00063300EB4303D3F80034C3F30903C5F873
:10099C004432B5F82C2205F22C4101F06BFB2A688D
:1009AC00138823F070031B051B0D1380284602F0DF
:1009BC0035FCABE1BDF8043013F4004F00F0A68118
:1009CC00038823F070031B051B0D03802868B0F807
:1009DC0050309BB295F8282203EBC203063300EB90
:1009EC004303D3F80034C3F30903C5F8443263B1AD
:1009FC00B5F82C22D5F83C1201F03CFBD5F83C2282
:100A0C00D5F844321344C5F83C320021284602F094
:100A1C000DFC2A68B2F850309BB2063302EB43034C
:100A2C00D5F838123E290ED9C1F34F1211F01F0F11
:100A3C0001D1013A92B26FEAC2626FEA524292B2AB
:100A4C00C3F800240AE0C1F34F0211F0010F01D0EA
:100A5C00013292B2920292B2C3F800242A6813882F
:100A6C009BB223F4804323F0700383F4405343F48C
:100A7C00004343F08003138048E130F824309BB2EC
:100A8C00ADF80430BDF8043013F4004F00F096803C
:100A9C0030F8243023F070031B051B0D20F8243094
:100AAC0005EB441393F83232E3B92868B0F85030B0
:100ABC009BB205EB441292F8282203EBC2030633D7
:100ACC0000EB4303B3F80064C6F30906002E52D0C2
:100ADC0005EB44113346B1F82C22D1F83C1201F04D
:100AEC00C9FA48E0286805EB441393F8281230F84B
:100AFC00213003F480439BB2B3B1B0F8502092B2D2
:100B0C0002EBC103023300EB4303B3F80064C6F3FA
:100B1C000906FEB105EB44113346B1F82E22D1F88B
:100B2C003C1201F0A7FA15E0B0F850309BB203EB81
:100B3C00C103063300EB4303B3F80064C6F30906A4
:100B4C0046B105EB44113346B1F83022D1F83C12D2
:100B5C0001F090FA2A6805EB441393F8281232F846
:100B6C00213023F0F0031B051B0D43F4004343F02D
:100B7C00C00322F8213004F112035B01E9184A6822
:100B8C0032444A6005EB4411D1F83C223244C1F89E
:100B9C003C22EB581BB1D1F838128E4207D205EB30
:100BAC00441393F82812284602F040FB06E005EBAC
:100BBC00441191F828122846FFF742FEBDF8043084
:100BCC0003F080039BB2002B00F0A0802A6832F85F
:100BDC0024309BB223F4E14323F070039BB222F840
:100BEC00243005EB441393F83230EBB92868B0F895
:100BFC0050309BB205EB441292F8282003EBC20351
:100C0C00023300EB4303D3F80034C3F30903A21CF3
:100C1C0005EB42125360002B51D005EB44118A8D29
:100C2C00C96B01F09FF84AE0286805EB441393F870
:100C3C00281030F8213003F040039BB2BBB1B0F860
:100C4C00502092B202EBC103023300EB4303D3F802
:100C5C000034C3F30903A21C05EB42125360EBB141
:100C6C0005EB4411CA8DC96B01F07CF816E0B0F8A5
:100C7C0050309BB203EBC103063300EB4303D3F8B4
:100C8C000034C3F30903A21C05EB421253602BB1D1
:100C9C0005EB44110A8EC96B01F064F82A6805EB68
:100CAC00441393F8281032F8213023F0F0031B057D
:100CBC001B0D43F4404343F0800322F82130296894
:100CCC00B1F850309AB205EB441090F8283002EB92
:100CDC00C303023301EB4303D3F80034C3F309031A
:100CEC00A11C49016A185360C26B1A44C2636B5849
:100CFC002BB990F82810284602F0A2FA06E005EB72
:100D0C00441494F828102846FFF7C2FD2868B0F860
:100D1C0044309BB2ADF8063013F4004F7FF4DFADD6
:100D2C00002002B070BD00BF10B50446006801F091
:100D3C0013F810F4004F02D02046FFF7C7FD2068CF
:100D4C0001F00AF810F4806F0FD02268B2F844302A
:100D5C009BB223F480639BB2A2F84430204602F08D
:100D6C007FFA00212046FFF705FD206800F0F4FF14
:100D7C0010F4804F08D02268B2F844309BB223F4B0
:100D8C0080439BB2A2F84430206800F0E5FF10F4D9
:100D9C00005F08D02268B2F844309BB223F40053B1
:100DAC009BB2A2F84430206800F0D6FF10F4805FAC
:100DBC001DD02268B2F840309BB223F004039BB2E2
:100DCC00A2F840302268B2F840309BB223F00803FE
:100DDC009BB2A2F84030204602F05EFA2268B2F8CC
:100DEC0044309BB223F480539BB2A2F84430206869
:100DFC0000F0B2FF10F4006F21D02268B2F840303E
:100E0C009BB243F00803A2F840302268B2F8443099
:100E1C009BB223F400639BB2A2F844302268B2F870
:100E2C0040309BB243F00403A2F84030206800F03D
:100E3C0093FF10F4805F02D1204602F01DFA206867
:100E4C0000F08AFF10F4007F0BD02268B2F8443017
:100E5C009BB223F400739BB2A2F84430204602F0FC
:100E6C00F9F9206800F078FF10F4807F08D0226830
:100E7C00B2F844309BB223F480739BB2A2F8443096
:100E8C0010BD00BF38B54AB2002A05DA01F07F0365
:100E9C005B012833034403E04B0103F50A7303445D
:100EAC0001249C7001F07F041C70D20F5A7090F8D2
:100EBC002824012A11D00546012280F8282419463D
:100ECC00006800F0BBFE24B905F22C41286800F044
:100EDC0047FF002085F8280438BD022038BD00BF2C
:100EEC0010B54AB2002A05DA01F07F035B01283302
:100EFC00034403E04B0103F50A73034400249C7084
:100F0C0001F07F011970D20F5A7090F82824012A31
:100F1C000BD00446012280F828241946006800F002
:100F2C00C5FE002084F8280410BD022010BD00BFAF
:100F3C0010B401F08004A4B22CB101F07F0149017E
:100F4C002831014403E0490101F50A71014412B949
:100F5C008A728B8004E001228A72CB801B0C0B817D
:100F6C00002010BC704700BF82B0084B1B68084AB9
:100F7C00A2FB03235B0A00FB03F0019000BF019B63
:100F8C005A1E0192002BF9D102B070471C010020AF
:100F9C00D34D621070B582B00446036813F0010F94
:100FAC006BD0A84B5B6803F00C03042B0AD0A54B49
:100FBC005B6803F00C03082B0DD1A24B5B6813F498
:100FCC00803F08D09F4B1B6813F4003F55D06368DB
:100FDC00002B52D1B8E16368B3F5803F05D1994A33
:100FEC00136843F48033136026E063B903F1804344
:100FFC0003F504331A6822F480321A601A6822F45A
:10100C0080221A6018E0B3F5A02F0CD103F18043B5
:10101C00A3F53C331A6842F480221A601A6842F431
:10102C0080321A6008E0874B1A6822F480321A600A
:10103C001A6822F480221A6063687BB1FFF7D8F833
:10104C00054605E0FFF7D4F8401B642800F27E81CA
:10105C007C4B1B6813F4003FF4D00EE0FFF7C8F88C
:10106C00054605E0FFF7C4F8401B642800F27081C8
:10107C00744B1B6813F4003FF4D1236813F0020F78
:10108C0050D0704B5B6813F00C0F0AD06D4B5B6843
:10109C0003F00C03082B16D16A4B5B6813F4803FEA
:1010AC0011D1684B1B6813F0020F03D02369012B7D
:1010BC0040F05081634A136823F0F803616943EAF6
:1010CC00C10313602EE02369D3B101225E4B1A6079
:1010DC00FFF78EF8054605E0FFF78AF8401B02285B
:1010EC0000F23A81574B1B6813F0020FF4D0554AAB
:1010FC00136823F0F803616943EAC103136011E03C
:10110C000022514B1A60FFF773F8054605E0FFF714
:10111C006FF8401B022800F221814A4B1B6813F028
:10112C00020FF4D1236813F0080F29D0A369ABB1D7
:10113C000122464B1A60FFF75BF8054605E0FFF706
:10114C0057F8401B022800F20B813E4B5B6A13F0F0
:10115C00020FF4D00120FFF707FF11E000223B4BF8
:10116C001A60FFF745F8054605E0FFF741F8401B0C
:10117C00022800F2F780334B5B6A13F0020FF4D1B4
:10118C00236813F0040F00F089802E4BDB6913F0F9
:10119C00805F0BD12B4BDA6942F08052DA61DB694C
:1011AC0003F080530193019B012500E00025284B9F
:1011BC001B6813F4807F13D1254A136843F48073A2
:1011CC001360FFF715F8064605E0FFF711F8801BD2
:1011DC00642800F2C9801E4B1B6813F4807FF4D086
:1011EC00E368012B05D1174A136A43F0010313621C
:1011FC0022E063B903F1804303F504331A6A22F049
:10120C0001021A621A6A22F004021A6214E0052B17
:10121C0009D10C4B1A6A42F004021A621A6A42F0A3
:10122C0001021A6208E0074B1A6A22F001021A62E4
:10123C001A6A22F004021A62E368CBB1FEF7D8FFF7
:10124C0006460FE000100240000042428004424279
:10125C0000700040FEF7CCFF801B41F288339842AF
:10126C0000F28480494B1B6A13F0020FF2D00FE09E
:10127C00FEF7BEFF064606E0FEF7BAFF801B41F202
:10128C008833984274D8414B1B6A13F0020FF3D188
:10129C0025B13E4AD36923F08053D361E369002B17
:1012AC0068D03A4A526802F00C02082A64D0022B29
:1012BC0037D10022364B1A60FEF79AFF054604E040
:1012CC00FEF796FF401B022858D8304B1B6813F0D2
:1012DC00007FF5D1236AB3F5803F06D12B494B68CB
:1012EC0023F40032A36813434B602848436823F46B
:1012FC007411236A626A13430B4343600122244B2B
:10130C001A60FEF775FF044604E0FEF771FF001B40
:10131C00022835D81D4B1B6813F0007FF5D0002038
:10132C0031E000221A4B1A60FEF762FF044604E01B
:10133C00FEF75EFF001B022824D8144B1B6813F029
:10134C00007FF5D100201EE001201CE003201AE0F4
:10135C00032018E0012016E0032014E0032012E023
:10136C00032010E003200EE003200CE003200AE031
:10137C00032008E0002006E0012004E0032002E046
:10138C00032000E0032002B070BD00BF001002403B
:10139C006000424230B486B0164D02AC28686968D1
:1013AC00AA68EB680FC42B8AADF80430124B5B684B
:1013BC0003F00C02082A19D1C3F3834206A90A448C
:1013CC0012F8100C13F4803F0CD00B4B5B68C3F37A
:1013DC0040430B4413F8142C084B03FB00F0B0FBF8
:1013EC00F2F004E0064B03FB00F000E0034806B00B
:1013FC0030BC7047FC3500080010024000127A0027
:10140C0000093D0070B55C4B1B6803F007038B4271
:10141C000BD2594A136823F007030B43136013686C
:10142C0003F00703994240F09780036813F0020F12
:10143C0006D0524C636823F0F00283681343636058
:10144C000D460446036813F0010F4DD04268012A83
:10145C0005D14A4B1B6813F4003F0DD17EE0022AE4
:10146C0005D1464B1B6813F0007F05D178E0434B48
:10147C001B6813F0020F75D040494B6823F003032F
:10148C0013434B60FEF7B4FE06466368012B0ED186
:10149C0006E0FEF7ADFE801B41F28833984263D81C
:1014AC00364B5B6803F00C03042BF2D11CE0022BCF
:1014BC0015D106E0FEF79CFE801B41F28833984262
:1014CC0054D82E4B5B6803F00C03082BF2D10BE0C5
:1014DC00FEF78EFE801B41F28833984248D8274B8A
:1014EC005B6813F00C0FF3D1234B1B6803F007035D
:1014FC009D420AD2204A136823F007032B43136042
:10150C00136803F007039D4234D1236813F0040FD2
:10151C0006D01A494B6823F4E062E36813434B602E
:10152C00236813F0080F07D0144A536823F4605350
:10153C00216943EAC1035360FFF72CFF0F4B5B6833
:10154C00C3F303130E4AD35CD8400E4B1860002033
:10155C00FEF70CFE002070BD012070BD012070BD97
:10156C00012070BD012070BD032070BD032070BD33
:10157C00032070BD012070BD00200240001002400D
:10158C00103600081C010020014B1868704700BF82
:10159C001C01002008B5FFF7F7FF044B5B68C3F391
:1015AC000223034AD35CD84008BD00BF00100240A0
:1015BC002036000870B582B00446036813F0010FA2
:1015CC005CD03E4BDB6913F0805F0BD13B4BDA698F
:1015DC0042F08052DA61DB6903F080530193019B86
:1015EC00012600E00026364B1B6813F4807F12D1D5
:1015FC00334A136843F480731360FEF7F9FD054614
:10160C0004E0FEF7F5FD401B64284FD82C4B1B68FB
:10161C0013F4807FF5D0294B1B6A13F4407321D04F
:10162C00626802F4407293421CD0244A136A23F479
:10163C004070244901250D6000250D60106213F0E7
:10164C00010F0FD0FEF7D4FD054606E0FEF7D0FDE6
:10165C00401B41F2883398422AD8184B1B6A13F06E
:10166C00020FF3D015490B6A23F4407263681343DD
:10167C000B621EB1CB6923F08053CB61236813F04E
:10168C00020F06D00D494B6823F44042A368134364
:10169C004B60236813F0100F0CD008494B6823F4EF
:1016AC008002E36813434B60002004E0032002E057
:1016BC00032000E0002002B070BD00BF001002400B
:1016CC00007000404004424284B001A880E80E0043
:1016DC00002004B0704700BFB0F840309BB243F418
:1016EC003F43A0F840300020704700BFB0F84030B6
:1016FC0023F474535B045B0CA0F84030002070475B
:10170C000020704784B038B505AC84E80E00012386
:10171C00A0F840300024A0F84040A0F84440A0F8C5
:10172C005040FFF7D9FF2046BDE8384004B0704761
:10173C0010B4CB78032B35D8DFE803F002280F1B4D
:10174C000A7830F822309BB223F4EC4323F0700378
:10175C0043F4007320F8223024E00A7830F8223069
:10176C009BB223F4EC4323F070039BB220F822309D
:10177C0018E00A7830F822309BB223F4EC4323F0C3
:10178C00700343F4C06320F822300BE00A7830F881
:10179C0022309BB223F4EC4323F0700343F48063B8
:1017AC0020F822300A7830F8223023F0F0031B05A1
:1017BC001B0D134343F4004343F0800320F8223005
:1017CC008B7A002B40F08B804B7883B3B0F8503081
:1017DC009BB20A7803EBC20300EB43038A885208DE
:1017EC005200C3F800240A7830F8223003F040038A
:1017FC009BB25BB130F8223023F0F0031B051B0DBC
:10180C0043F4004343F0C00320F822300A7830F848
:10181C0022309BB223F4E04323F0400383F02003F7
:10182C0043F4004343F0800320F822301BE1B0F86E
:10183C0050309BB20A7803EBC203043300EB430332
:10184C008A8852085200C3F80024B0F850309BB27A
:10185C000A7803EBC203063300EB43030C693E2CFE
:10186C000ED9C4F34F1214F01F0F01D1013A92B2EA
:10187C006FEAC2626FEA524292B2C3F800240AE0E5
:10188C00C4F34F0214F0010F01D0013292B2920254
:10189C0092B2C3F800240A7830F8223003F4804363
:1018AC009BB25BB130F8223023F0F0031B051B0D0B
:1018BC0043F4404343F0800320F822300A7830F898
:1018CC0022309BB223F4804323F0700383F4405303
:1018DC0043F4004343F0800320F82230C3E00A783D
:1018EC0030F8223023F4F8731B051B0D43F401432D
:1018FC0043F0800320F82230B0F850309BB20A78C5
:10190C0003EBC20300EB4303CA8852085200C3F82E
:10191C000024B0F850309BB20A7803EBC2030433B6
:10192C0000EB43030A8952085200C3F800244B7899
:10193C00002B4DD10A7830F8223003F480439BB24F
:10194C005BB130F8223023F0F0031B051B0D43F480
:10195C00404343F0800320F822300A7830F82230DC
:10196C0003F040039BB25BB130F8223023F0F0035C
:10197C001B051B0D43F4004343F0C00320F8223039
:10198C000A7830F8223023F0F0031B051B0D43F4CA
:10199C00004343F0C00320F822300C7830F8243098
:1019AC009BB223F4804323F0700383F4405348F23A
:1019BC008002134320F82430097830F821309BB290
:1019CC0023F4E04323F04003134320F821304AE092
:1019DC000A7830F8223003F480439BB25BB130F8C4
:1019EC00223023F0F0031B051B0D43F4404343F05E
:1019FC00800320F822300A7830F8223003F04003BC
:101A0C009BB25BB130F8223023F0F0031B051B0DA9
:101A1C0043F4004343F0C00320F822300A7830F836
:101A2C00223023F0F0031B051B0D43F4404343F01D
:101A3C00800320F822300C7830F824309BB223F449
:101A4C00E04323F0400348F28002134320F8243093
:101A5C00097830F821309BB223F4804323F07003D3
:101A6C00134320F82130002010BC70478B7A002BD8
:101A7C0046D14B7813B30A7830F8223003F0400388
:101A8C009BB25BB130F8223023F0F0031B051B0D29
:101A9C0043F4004343F0C00320F822300A7830F8B6
:101AAC0022309BB223F4E04323F0400343F4004381
:101ABC0043F0800320F82230002070470A7830F879
:101ACC00223003F480439BB25BB130F8223023F018
:101ADC00F0031B051B0D43F4404343F0800320F837
:101AEC0022300A7830F822309BB223F4804323F062
:101AFC00700343F4004343F0800320F82230DBE70B
:101B0C0010B44B78002B4BD10A7830F8223003F408
:101B1C0080439BB25BB130F8223023F0F0031B05FD
:101B2C001B0D43F4404343F0800320F822300A7825
:101B3C0030F8223003F040039BB25BB130F8223016
:101B4C0023F0F0031B051B0D43F4004343F0C003CB
:101B5C0020F822300A7830F8223023F0F0031B05ED
:101B6C001B0D43F4004343F0C00320F822300C78E3
:101B7C0030F824309BB223F4804323F0700348F2F6
:101B8C008002134320F82430097830F821309BB2BE
:101B9C0023F4E04323F04003134320F821304AE0C0
:101BAC000A7830F8223003F480439BB25BB130F8F2
:101BBC00223023F0F0031B051B0D43F4404343F08C
:101BCC00800320F822300A7830F8223003F04003EA
:101BDC009BB25BB130F8223023F0F0031B051B0DD8
:101BEC0043F4004343F0C00320F822300A7830F865
:101BFC00223023F0F0031B051B0D43F4404343F04C
:101C0C00800320F822300C7830F824309BB223F477
:101C1C00E04323F0400348F28002134320F82430C1
:101C2C00097830F821309BB223F4804323F0700301
:101C3C00134320F82130002010BC70470A788AB971
:101C4C0030F822309BB223F4804323F0400383F41A
:101C5C00805383F0100343F4004343F0800320F8D7
:101C6C00223020E04B787BB130F822309BB223F449
:101C7C00E04323F0400383F0100343F4004343F0AC
:101C8C00800320F822300EE030F822309BB223F48F
:101C9C00804323F0700383F4805343F4004343F0F8
:101CAC00800320F822300020704700BF4B781BB314
:101CBC000A7830F8223003F040039BB25BB130F865
:101CCC00223023F0F0031B051B0D43F4004343F0BB
:101CDC00C00320F822300A7830F822309BB223F46B
:101CEC00E04323F0400383F0300343F4004343F01C
:101CFC00800320F8223022E00A7830F8223003F4F6
:101D0C0080439BB25BB130F8223023F0F0031B050B
:101D1C001B0D43F4404343F0800320F822300A7833
:101D2C0030F822309BB223F4804323F0700383F409
:101D3C00405343F4004343F0800320F8223000204A
:101D4C00704700BF11B98023A0F84C3000207047B9
:101D5C000020704700207047B0F8440080B27047F4
:101D6C000020704710B401335B1000EB420202F507
:101D7C00806207E00C78487844EA002422F8044B8F
:101D8C000231013B002BF5D110BC704770B54A787D
:101D9C00012A40F0C2808E690B699E4203D9F61A63
:101DAC008E611E4601E000238B610D4604468B7A42
:101DBC0083B9B3B28A884969FFF7D4FFB4F85030BD
:101DCC009BB22A7803EBC203023304EB4303C3F840
:101DDC00006491E0097830F8213003F040039BB2A5
:101DEC009BB322BBB0F850309BB203EBC101063160
:101DFC0000EB41013E2E0ED9C6F34F1316F01F0F08
:101E0C0001D1013B9BB26FEAC3636FEA53439BB2B0
:101E1C00C1F8003417E0C6F34F0316F0010F01D0E0
:101E2C0001339BB29B029BB2C1F800340BE0012A38
:101E3C0009D1B0F850309BB203EBC103023300EB75
:101E4C004303C3F800642A8932E022BBB0F8503057
:101E5C009BB203EBC101023100EB41013E2E0ED9C6
:101E6C00C6F34F1316F01F0F01D1013B9BB26FEA63
:101E7C00C3636FEA53439BB2C1F8003417E0C6F357
:101E8C004F0316F0010F01D001339BB29B029BB2A2
:101E9C00C1F800340BE0012A09D1B0F850309BB2E4
:101EAC0003EBC103023300EB4303C3F80064EA887D
:101EBC00B3B269692046FFF755FF6B786BB92A7886
:101ECC0034F8223023F0F0031B051B0D43F40043C0
:101EDC0043F0C00324F822300EE0012B0CD12A78F9
:101EEC0034F8223023F0F0031B051B0D43F4404360
:101EFC0043F0800324F822302A7834F822309BB245
:101F0C0023F4E04323F0400383F0300343F4004315
:101F1C0043F0800324F82230AAE08B690C69A342B9
:101F2C0003D91B1B8B61234601E000248C618C7A46
:101F3C002CBBB0F8502092B20C7802EBC4020632E3
:101F4C0000EB42023E2B0ED9C3F34F1413F01F0FBC
:101F5C0001D1013CA4B26FEAC4646FEA5444A4B248
:101F6C00C2F8004474E0C3F34F0413F0010F01D026
:101F7C000134A4B2A402A4B2C2F8004468E02ABBA3
:101F8C00B0F8502092B20C7802EBC402023200EB93
:101F9C0042023E2B0ED9C3F34F1413F01F0F01D185
:101FAC00013CA4B26FEAC4646FEA5444A4B2C2F810
:101FBC00004418E0C3F34F0413F0010F01D00134B7
:101FCC00A4B2A402A4B2C2F800440CE0012A0AD1C3
:101FDC00B0F8502092B20C7802EBC402023200EB43
:101FEC004202C2F800344A782ABBB0F8502092B2B0
:101FFC000C7802EBC402063200EB42023E2B0ED9E7
:10200C00C3F34F1413F01F0F01D1013CA4B26FEABC
:10201C00C4646FEA5444A4B2C2F8004418E0C3F399
:10202C004F0413F0010F01D00134A4B2A402A4B2E6
:10203C00C2F800440CE0012A0AD1B0F8502092B248
:10204C000C7802EBC402023200EB4202C2F80034FC
:10205C000A7830F822309BB223F4804323F07003CB
:10206C0083F4405343F4004343F0800320F82230C0
:10207C00002070BD01335B1000EB420202F5806260
:10208C0004E0106821F8020B013B0432002BF8D15C
:10209C00704700BFD0F818321BB10020C3F81402EF
:1020AC0070470220704700BF10B5D0F81842D0F826
:1020BC001C325BB194F80002FF2807D09B6894F89F
:1020CC00012221469847FF2384F80032002010BDDE
:1020DC0043230380004870470800002043230380FB
:1020EC00004870474C000020432303800048704791
:1020FC00900000200A23038000487047D400002081
:10210C0038B50446D0F8185201F0AAF9C5F80C02FB
:10211C00D4F818324BB1D4F81C32DB6805F50371D6
:10212C00D5F804029847002038BD022038BD00BF06
:10213C0070B505460C46D0F818620B7813F06002A7
:10214C0024D0202A29D1CA88CAB113F0800F0BD011
:10215C00D0F81C329B68314660789847E28831464B
:10216C00284600F087FC18E04B7886F80032CB88C4
:10217C0086F80132CA88314600F092FC0DE0D0F8A6
:10218C001C329B6800224878984706E04B780A2B53
:10219C0003D10122024900F06DFC002070BD00BF8C
:1021AC008001002010B50446812101F0E5F80121E1
:1021BC00204601F0E1F88221204601F0DDF8D4F848
:1021CC00183253B1D4F81C325B689847D4F8180213
:1021DC0001F050F90023C4F81832002010BD00BFE4
:1021EC0038B50446037C6BB94FF40073022281218D
:1021FC0001F0B0F84FF4007302220121204601F0E7
:10220C00A9F80AE040230222812101F0A3F840231F
:10221C0002220121204601F09DF80823032282218D
:10222C00204601F097F84FF4077001F01FF90546AE
:10223C00C4F81802E8B1D4F81C321B689847002384
:10224C00C5F81432C5F81832237C4BB94FF400731F
:10225C00D5F804220121204601F0F2F8002038BD07
:10226C004023D5F804220121204601F0E9F8002092
:10227C0038BD012038BD00BF19B1C0F81C120020B8
:10228C0070470220704700BFD0F81832C3F808120C
:10229C00C3F8102200207047D0F81832C3F804128B
:1022AC0000207047D0F818227AB108B5D2F8143251
:1022BC006BB90123C2F81432B2F81032D2F80822EA
:1022CC00812101F0ADF8002008BD022070470120EB
:1022DC0008BD00BFD0F818229AB108B5037C43B9E9
:1022EC004FF40073D2F80422012101F0A9F8002068
:1022FC0008BD4023D2F80422012101F0A1F80020EE
:10230C0008BD0220704700BF98B108B50346D0F84D
:10231C00140210B10020C3F8140209B1C3F8101252
:10232C001846012380F8FC31027000F0BBFF00203E
:10233C0008BD0220704700BF19B1C0F8141200206C
:10234C0070470220704700BF08B500F0F3FF002073
:10235C0008BD00BF08B5D0F8143223B11B689847EC
:10236C0018B1022008BD022008BD002008BD00BF26
:10237C0008B5D0F814325B689847002008BD00BF40
:10238C0038B5044600F50275284600F00BF9012318
:10239C00C4F8F431B4F80E32C4F8F83194F80812D9
:1023AC0001F01F03012B08D013B1022B0AD00EE051
:1023BC002946204600F072FA0EE02946204600F02D
:1023CC0091FA09E02946204600F0A8FA04E001F051
:1023DC008001204600F0E0FF002038BD10B5044617
:1023EC0011BB1346D0F8F421032A28D1D0F80C11D4
:1023FC00D0F8102191420AD9891AC0F80C118A42DE
:10240C0028BF0A4692B2194600F05AFB17E0D0F8E2
:10241C0014321B6923B190F8FC21032A00D1984790
:10242C00204600F055FB0AE00A46D0F814329B69AE
:10243C002BB190F8FC11032901D1114698470020CB
:10244C0010BD00BF10B50446002943D11346D0F887
:10245C00F421022A36D1C169026A91420CD98A1A36
:10246C00C26192B2194600F013FB00231A461946BA
:10247C00204600F0E5FF25E08169B1FBF2F302FB99
:10248C00131393B98A4210D8D0F8F83199420CD270
:10249C000022114600F0FCFA0021C4F8F8110B469A
:1024AC000A46204600F0CCFF0CE0D4F81432DB686E
:1024BC002BB194F8FC21032A01D1204698472046E1
:1024CC0000F012FB94F80032012B0ED1002384F89B
:1024DC0000320AE00A46D0F814325B692BB190F84E
:1024EC00FC11032901D111469847002010BD00BFF3
:1024FC0038B5044640230022114600F02BFF40253E
:10250C00C4F810512B4600228021204600F022FFF7
:10251C002562012384F8FC31D4F818322BB1D4F89D
:10252C0014325B68217920469847002038BD00BFE3
:10253C0001740020704700BF90F8FC3180F8FD3129
:10254C00042380F8FC310020704700BF90F8FD3167
:10255C0080F8FC310020704708B590F8FC31032B53
:10256C0004D1D0F81432DB6903B19847002008BDC0
:10257C000346002002E00130C0B201331A78002A71
:10258C00F9D170474B88012B0BD110B50446C0F81C
:10259C000432D0F814329B689847204600F098FA21
:1025AC0010BD70470B7803704B7843708B78CA78EA
:1025BC0003EB022343800B794A7903EB02238380DC
:1025CC008B79CA7903EB0223C380704710B504469C
:1025DC00802100F0E1FE0021204600F0DDFE10BD60
:1025EC0030B583B004460D464A88130A013B062BCE
:1025FC0079D8DFE803F0040C2078785C6900D0F817
:10260C0010321B680DF10601007C98476FE0037CCB
:10261C0043B9D0F814329B6A0DF106009847022397
:10262C00437064E0D0F81432DB6A0DF10600984771
:10263C00022343705BE0D2B2052A34D8DFE802F003
:10264C00030B131B232BD0F810325B680DF1060122
:10265C00007C98474BE0D0F810329B680DF10601D6
:10266C00007C984743E0D0F81032DB680DF106018E
:10267C00007C98473BE0D0F810321B690DF1060145
:10268C00007C984733E0D0F810325B690DF10601FD
:10269C00007C98472BE0D0F810329B690DF10601B5
:1026AC00007C984723E02946FFF790FF2DE0037C40
:1026BC0033B9D0F814325B6B0DF10600984716E075
:1026CC002946FFF783FF20E0037C43B9D0F814328E
:1026DC001B6B0DF1060098470723437007E0294652
:1026EC00FFF774FF11E02946FFF770FF0DE0BDF80E
:1026FC00063053B1EA8842B19A4228BF1A46ADF867
:10270C0006200146204600F0B5F903B030BD00BFED
:10271C0038B504468B88E3B9CB88D3B98D7805F0EE
:10272C007F0590F8FC31032B02D1FFF74FFF38BD2A
:10273C0080F8FE51294600F063FE204600F0C8F9EF
:10274C001DB1022384F8FC3138BD012384F8FC311F
:10275C0038BD2046FFF73AFF38BD00BF38B50446F8
:10276C000D468978264B1970012903D92946FFF7A4
:10277C002DFF38BD90F8FC31022B02D0032B15D065
:10278C0039E081B14160032380F8FC31FFF7E2FDB1
:10279C00022804D129462046FFF718FF38BD2046F1
:1027AC0000F096F938BD00F093F938BD49B9022311
:1027BC0080F8FC314160FFF7DBFD204600F088F922
:1027CC0038BD4368994213D0D9B2FFF7D1FD0C4BF9
:1027DC00197861602046FFF7BDFD022804D1294617
:1027EC002046FFF7F3FE38BD204600F071F938BDE6
:1027FC0000F06EF938BD2946FFF7E8FE38BD00BF82
:10280C008101002008B5CB88012B02D0FFF7DEFE3A
:10281C0008BD90F8FC31022B02D0032B08D00CE041
:10282C000146002341F8083F012200F023F908BDBE
:10283C000122011D00F01EF908BDFFF7C7FE08BDFF
:10284C0008B590F8FC31023B012B0CD80123C36076
:10285C00D0F804320BB10323C360022200F10C0147
:10286C0000F008F908BDFFF7B1FE08BD10B504462D
:10287C0090F8FC31023B012B0DD84B88012B0CD16D
:10288C000023C0F80432D0F814329B6898472046D5
:10289C0000F01EF910BDFFF799FE10BD08B54B787E
:1028AC00092B1BD8DFE803F011171A141A08051AA4
:1028BC000E0BFFF795FE13E0FFF72AFF10E0FFF772
:1028CC004DFF0DE0FFF79EFF0AE0FFF7B9FF07E0B1
:1028DC00FFF758FE04E0FFF7C9FF01E0FFF776FEB3
:1028EC00002008BD38B504460D4690F8FC31032B8A
:1028FC000FD10B79012B09D8D0F814329B6898476B
:10290C00EB8843B9204600F0E3F804E0FFF75EFEE5
:10291C0001E0FFF75BFE002038BD00BF38B505466F
:10292C000C468A880B7803F06003202B04D1D0F876
:10293C0014329B6898477DE0D1B26378012B26D086
:10294C00002B48D0032B75D190F8FC31022B02D010
:10295C00032B07D017E000296CD080296AD000F037
:10296C001BFD67E0638823B919B1802901D000F001
:10297C0013FDD5F814329B68214628469847284603
:10298C0000F0A6F856E02146FFF720FE52E090F842
:10299C00FC31022B02D0032B07D018E0002949D0C0
:1029AC00802947D000F0F8FC44E06388002B41D12B
:1029BC0011F07F0F07D000F0FFFCD5F814329B68A4
:1029CC00214628469847284600F082F832E02146F6
:1029DC00FFF7FCFD2EE090F8FC31022B02D0032B0C
:1029EC0006D024E011F07F0F24D000F0D5FC21E0BC
:1029FC0012F0800F06D001F07F04013400EB0414B8
:102A0C00043405E001F07F04103400EB04140434AA
:102A1C00284600F0E1FC10B10123236001E0002303
:102A2C00236002222146284600F024F802E02146C9
:102A3C00FFF7CCFD002038BDD0B170B50D46164661
:102A4C000446FFF795FD0130400080B230802870BD
:102A5C0003236B70022307E05A1CD2B20134E954F1
:102A6C000233DBB20021A95421780029F4D170BDC6
:102A7C00704700BF10B513460222C0F8F4218361E1
:102A8C00C3610A46002100F0CBFC002010BD00BF42
:102A9C0008B513460A46002100F0C2FC002008BD10
:102AAC0010B513460322C0F8F421C0F80831C0F861
:102ABC000C310A46002100F0C3FC002010BD00BF01
:102ACC0008B513460A46002100F0BAFC002008BDE8
:102ADC0008B50423C0F8F43100231A46194600F057
:102AEC009FFC002008BD00BF08B50523C0F8F431D9
:102AFC0000231A46194600F0A3FC002008BD00BFB5
:102B0C00704700BF70B5064600250FE0094CE3681E
:102B1C0083F40053E360C820FDF770FBE36883F493
:102B2C000053E360C820FDF769FB0135B542EDDBCE
:102B3C0070BD00BF0010014010B582B000F00CFB5E
:102B4C00B0F1FF3F30D0C4B28DF8044000238DF8B3
:102B5C00053001A800F05AF8322C0CD002D8312CD8
:102B6C0005D0EBE7652C10D0682C19D0E6E70F48A0
:102B7C0000F056F8E2E70E4800F052F86420FDF73A
:102B8C003DFB0620FFF7BEFFD8E70A4800F048F8E7
:102B9C006420FDF733FB0221002000F0B1F8CDE7F3
:102BAC00054800F03DF8C9E702B010BD2836000812
:102BBC0038360008503600086C3600082DE9F04114
:102BCC0006460D4600F0F4FAC4B2CCB1012C17D174
:102BDC00FDF70EFB80460C4B1F68B7F1FF3F09D089
:102BEC00013707E02946304600F0E2FAC4B23CB1A6
:102BFC00022C05D0FDF7FCFAC8EB00008742F1D897
:102C0C002046BDE8F08100BF1801002010B5044635
:102C1C00FDF7A4FA411C89B22046FFF7CFFF10BD87
:102C2C0010B50446FDF79AFA81B22046FFF7C6FFAD
:102C3C00034618B90248FFF7E9FF0346184610BDD2
:102C4C008436000830B589B0294B9A6942F01002DD
:102C5C009A619A6902F010020092009A9A6942F005
:102C6C0020029A619A6902F020020192019A9A69F3
:102C7C0042F004029A619A6902F004020292029AEA
:102C8C009A6942F008029A619B6903F00803039366
:102C9C00039B184D00224FF400512846FDF72AFCE7
:102CAC004FF400530493012305930023069302234E
:102CBC00079304A92846FDF731FB4FF440430493D6
:102CCC000324059404A92846FDF728FB48F2FF735A
:102CDC000493059404A90848FDF720FB4FF2FF3339
:102CEC000493059404A90548FDF718FB09B030BD01
:102CFC00001002400010014000080140000C01408F
:102D0C0008B53F4CE36883F40053E3605A20FDF7A9
:102D1C0075FAE36883F40053E3605A20FDF76EFA0A
:102D2C00E36883F40053E3605A20FDF767FAE36825
:102D3C0083F40053E3605A20FDF760FAE36883F4F0
:102D4C000053E3605A20FDF759FAE36883F400530B
:102D5C00E360E36883F40053E360E36883F40053B7
:102D6C00E3609620FDF74AFAE36883F40053E360CE
:102D7C009620FDF743FAE36883F40053E360962052
:102D8C00FDF73CFAE36883F40053E3609620FDF70B
:102D9C0035FAE36883F40053E3609620FDF72EFACE
:102DAC00E36883F40053E3605A20FDF727FAE368E5
:102DBC0083F40053E3605A20FDF720FAE36883F4B0
:102DCC000053E3605A20FDF719FAE36883F40053CB
:102DDC00E3605A20FDF712FAE36883F40053E360D2
:102DEC005A20FDF70BFAE36883F40053E3605A2092
:102DFC00FDF704FA4FF44870FDF700FA81E700BFC5
:102E0C000010014008B50B480B4B03600B4B4360A3
:102E1C0000238360C3604FF480420261436183618D
:102E2C00C3610362FDF76CFB18B1E1210448FFF7A5
:102E3C0067FF08BDB403002000580040A0860100C5
:102E4C008836000800B595B001220A924FF4803301
:102E5C000B9300210C910E920222119212934FF4BB
:102E6C00E01313930AA8FEF795F818B1B2211A488B
:102E7C00FFF746FF0F2305930221069100230793CA
:102E8C004FF480620892099305A8FEF7BBFA18B1BB
:102E9C00BF211148FFF734FF102301930023049343
:102EAC0001A8FEF787FB18B1C5210B48FFF728FFD7
:102EBC00FEF76AFB094BA3FB00308009FDF702FA11
:102ECC000420FDF715FA002211464FF0FF30FDF7F4
:102EDC00BBF915B05DF804FB88360008D34D6210C1
:102EEC0008B5FDF767F9FFF7ADFFFFF7ABFE00F094
:102EFC00C1F8FFF787FFFFF703FEFFF71DFEFCE7A6
:102F0C0000B583B0244B9A6942F001029A619A6928
:102F1C0002F001020092009ADA6942F08052DA6102
:102F2C00DB6903F080530193019B0320FDF77AF9D1
:102F3C00002211466FF00B00FDF786F900221146B6
:102F4C006FF00A00FDF780F9002211466FF00900BE
:102F5C00FDF77AF9002211466FF00400FDF774F9C1
:102F6C00002211466FF00300FDF76EF900221146A6
:102F7C006FF00100FDF768F9002211464FF0FF30A9
:102F8C00FDF762F9054A536823F0E06343F00073E0
:102F9C00536003B05DF804FB0010024000000140D8
:102FAC0002680F4B9A4219D100B587B04FF44063B9
:102FBC000293122303930323059302A90948FDF7F7
:102FCC00ADF9094BDA6942F48002DA61DB6903F48A
:102FDC0080030193019B07B05DF804FB704700BFB1
:102FEC0000580040000C014000100240704700BF28
:102FFC00FEE700BFFEE700BFFEE700BFFEE700BF35
:10300C00704700BF704700BF704700BF08B5FDF7A1
:10301C00E3F8FDF77FF908BD08B50248FDF784FE1B
:10302C0008BD00BFCC0600200F4B1A6842F001020D
:10303C001A6059680D4A0A405A601A6822F0847264
:10304C0022F480321A601A6822F480221A605A68BC
:10305C0022F4FE025A604FF41F029A604FF0006295
:10306C00034B9A60704700BF001002400000FFF84D
:10307C0000ED00E010B5094C002209492046FFF78D
:10308C0043F908492046FFF757F907492046FFF74F
:10309C00F3F82046FFF758F910BD00BF08040020D4
:1030AC0048010020E0000020200100200020704793
:1030BC000020704710B5074C002207492046FFF747
:1030CC00E3F806492046FFF7E7F82046FFF702F938
:1030DC00002010BD080400206C0600202C060020E7
:1030EC00104B1A685B689A4204D10E4B1B7ADBB208
:1030FC00012B15D00B4B5A680B4988545B68013374
:10310C000A4A134003D5013B63F01F030133054A00
:10311C00536011685368994202D10122014B1A7213
:10312C00704700BF84010020AC0600201F00008007
:10313C0070B506460D46002403E0305DFFF7D0FF66
:10314C0001342B689C42F8D30248FFF7C3F80020E7
:10315C0070BD00BF08040020124B1A685B689A42CD
:10316C0004D1104B1B7A13F0FF0F17D00D4B1A68BC
:10317C000D49885C1B6801330C4A134003D5013B95
:10318C0063F01F030133074A1360116853689942B7
:10319C0002D10022034B1A7200B270474FF0FF307D
:1031AC00704700BF84010020AC0600201F00008087
:1031BC00094BD3F81832D3F8143253B910B50A4668
:1031CC000146054C2046FFF75FF82046FFF76AF8EA
:1031DC0010BD0120704700BF0804002002680E4B90
:1031EC009A4217D100B583B003F5DA33DA6942F4A9
:1031FC000002DA61DB6903F400030193019B0022F6
:10320C0011461420FDF720F81420FDF74FF803B0F9
:10321C005DF804FB704700BF005C004008B500F28D
:10322C002C41D0F85C04FFF7ABF808BD08B500EBF7
:10323C004113D3F83C22D0F85C04FFF7CFF808BD5B
:10324C0008B500EB4113DA6BD0F85C04FFF7FAF821
:10325C0008BD00BF08B5D0F85C04FFF77DF908BDC8
:10326C0010B504460121D0F85C04FFF761F9D4F8DD
:10327C005C04FFF73DF910BD10B50446D0F85C04B2
:10328C00FFF75AF9A36923B1024A136943F0060305
:10329C00136110BD00ED00E008B5D0F85C04FFF739
:1032AC0055F908BD10B504461F48C0F85C44C4F875
:1032BC0020021E4B03600823436002238360032318
:1032CC00C36000238361C3610362FDF7CDF920B1B4
:1032DC004FF497711648FFF713FD1823002211467F
:1032EC00D4F82002FDF724FE582300228021D4F8C4
:1032FC002002FDF71DFEC02300228121D4F82002FC
:10330C00FDF716FE4FF4887300220121D4F8200239
:10331C00FDF70EFE4FF4807300228221D4F82002B8
:10332C00FDF706FE002010BDCC060020005C00401E
:10333C009836000808B5D0F82002FDF703FA10B152
:10334C00022802D003E0002008BD012008BD0220A5
:10335C0008BD00BF10B51C4613462246D0F820020B
:10336C00FDF71CFA10B1022802D003E0002010BDBA
:10337C00012010BD022010BD08B5D0F82002FDF7C9
:10338C0037FA10B1022802D003E0002008BD01205A
:10339C0008BD022008BD00BF08B5D0F82002FDF71B
:1033AC0071FD10B1022802D003E0002008BD0120FD
:1033BC0008BD022008BD00BF08B5D0F82002FDF7FB
:1033CC008FFD10B1022802D003E0002008BD0120BF
:1033DC0008BD022008BD00BFD0F8202211F0800FDC
:1033EC0006D001F07F0302EB431191F82A007047DD
:1033FC0001F07F0102EB411191F82A02704700BFE6
:10340C0008B5D0F82002FDF7B5F910B1022802D0AA
:10341C0003E0002008BD012008BD022008BD00BF4C
:10342C0008B5D0F82002FDF733FA10B1022802D00B
:10343C0003E0002008BD012008BD022008BD00BF2C
:10344C0008B5D0F82002FDF7FBF910B1022802D024
:10345C0003E0002008BD012008BD022008BD00BF0C
:10346C0008B5D0F82002FDF70BFA08BD00487047EC
:10347C0090010020704700BF704700BF12230B80E3
:10348C00004870473001002004230B80004870472F
:10349C004401002008B50A4620B905490548FFF744
:1034AC00CBFA03E002490348FFF7C6FA004808BD0F
:1034BC002C0B0020AC36000810B5044C0A462146F3
:1034CC000348FFF7B9FA204610BD00BF2C0B0020B3
:1034DC00C436000808B50A4620B905490548FFF767
:1034EC00ABFA03E002490348FFF7A6FA004808BD0F
:1034FC002C0B0020D836000808B50A4620B905491F
:10350C000548FFF799FA03E002490348FFF794FADC
:10351C00004808BD2C0B0020E836000808B50A4608
:10352C0020B905490548FFF787FA03E0024903482B
:10353C00FFF782FA004808BD2C0B0020F436000877
:10354C00002103E00B4B5B58435004310A480B4BF2
:10355C0042189A42F6D30A4A02E0002342F8043B8E
:10356C00084B9A42F9D3FFF75FFD00F00FF8FFF715
:10357C00B7FC70470C3700080000002064010020E5
:10358C00640100202C0D0020FEE700000E4B70B5EE
:10359C001E460E4C0025E41AA410A54204D056F881
:1035AC00253098470135F8E700F016F8084B094C20
:1035BC001E46E41AA4100025A54204D056F8253066
:1035CC0098470135F8E770BD043700080437000848
:1035DC000437000808370008F8B500BFF8BC08BC71
:1035EC009E467047F8B500BFF8BC08BC9E467047B5
:1035FC0002030405060708090A0B0C0D0E0F101028
:10360C0001020000000000000000000001020304A1
:10361C00060708090000000001020304596F752019
:10362C00707265737365642031210000426C696EA1
:10363C006B696E67204C454420362074696D657348
:10364C002E0000005468726F77696E672074657382
:10365C0074696E6720657863657074696F6E21009C
:10366C0048656C70206E6F7420737570706F727417
:10367C0065642079657421000D0A00002E2E2F53ED
:10368C0072632F6D61696E2E630000002E2E2F5316
:10369C0072632F757362645F636F6E662E630000D6
:1036AC0053544D3332205669727475616C20436FDC
:1036BC006D506F727400000053544D6963726F65E6
:1036CC006C656374726F6E696373000030303030F8
:1036DC003030303030303141000000004344432062
:1036EC00436F6E666967000043444320496E7465FE
:0836FC007266616365000000C5
:043704003101000887
:043708000D010008A7
:10370C00010000001000000009024300020100C08B
:10371C003209040000010202010005240010010519
:10372C00240100010424020205240600010705827D
:10373C000308001009040100020A0000000705013B
:10374C00024000000705810240000000090243000E
:10375C00020100C03209040000010202010005242C
:10376C0000100105240100010424020205240600B6
:10377C00010705820308001009040100020A000079
:10378C00000705010200020007058102000200008B
:10379C0009074300020104C03209040000010202BF
:1037AC00010005240010010524010001042402027B
:1037BC000524060001070582030800FF0904010027
:1037CC00020A000000070501024000000705810203
:1037DC00400000000A06000200000040010000004A
:1037EC00ED210008B12100083D2100080000000077
:1037FC00B5200008A12000080D21000800000000E1
:10380C000000000000000000E9200008DD20000896
:10381C00F5200008012100080A00000000A24A045B
:10382C00C1300008B9300008BD3000083D31000837
:10383C001201000202020040830440570002010200
:10384C0003010000040309048934000895340008BE
:10385C00C5340008A1340008E1340008053500081F
:04386C0029350008F2
:040000050800354D6D
:00000001FF
