:020000040800F2
:1000000000500020D5320008BD2D0008BF2D00088B
:10001000C12D0008C32D0008C52D000800000000F8
:10002000000000000000000000000000C72D0008D4
:10003000C92D000800000000CB2D0008CD2D0008C0
:100040001D3300081D3300081D3300081D33000850
:100050001D3300081D3300081D3300081D33000840
:100060001D3300081D3300081D3300081D33000830
:100070001D3300081D3300081D3300081D33000820
:100080001D3300081D3300081D3300081D33000810
:10009000D92D00081D3300081D3300081D3300084A
:1000A0001D3300081D3300081D3300081D330008F0
:1000B0001D3300081D3300081D3300081D330008E0
:1000C0001D3300081D3300081D3300081D330008D0
:1000D0001D3300081D3300081D3300081D330008C0
:1000E0001D3300081D3300081D3300080000000008
:1000F0000000000000000000000000000000000000
:0C01000000000000000000005FF808F1A3
:10010C0010B5054C237833B9044B13B10448AFF345
:10011C0000800123237010BD60010020000000004E
:10012C00683300080C4B43B10C4810B50C49AFF3C5
:10013C0000800C48036823B910BD0A48036833B922
:10014C007047094B002BF7D0BDE810401847064B01
:10015C00002BF5D0184700BF0000000068330008E2
:10016C0064010020600100200000000010B504466E
:10017C000E4B18784FF47A73B3FBF0F30C4A1068FB
:10018C00B0FBF3F000F09EF868B90F2C01D90120F8
:10019C0010BD002221464FF0FF3000F055F8034B04
:1001AC005C60002010BD012010BD00BF00000020CD
:1001BC001801002008B5074A136843F010031360B8
:1001CC00032000F02FF80020FFF7D0FF02F07AFD9B
:1001DC00002008BD00200240034A1168034B1B7825
:1001EC000B441360704700BFAC03002000000020DC
:1001FC00014B1868704700BFAC03002038B50446AB
:10020C00FFF7F6FF0546B4F1FF3F02D0044B1B7815
:10021C001C44FFF7EDFF401B8442FAD838BD00BFE9
:10022C0000000020074AD36823F4E0631B041B0C76
:10023C00000200F4E060184340F0BF6040F400306E
:10024C00D060704700ED00E030B4164BDB68C3F3B0
:10025C000223C3F10704042C28BF04241D1D062D02
:10026C0017D9033B012505FA04F4013C21409940C0
:10027C0005FA03F3013B1340194300280BDB09017A
:10028C00C9B200F1604000F5614080F8001330BC49
:10029C0070470023E6E700F00F000901C9B2024BDA
:1002AC001954F4E700ED00E014ED00E0420900F011
:1002BC001F00012303FA00F0014B43F822007047A2
:1002CC0000E100E00138B0F1807F0AD2064B5860A3
:1002DC00F021064A82F823100020986007221A6049
:1002EC0070470120704700BF10E000E000ED00E017
:1002FC00042805D0054A136823F0040313607047E3
:10030C00024A136843F004031360704710E000E0E6
:10031C00704708B5FFF7FCFF08BD0000F0B583B0CF
:10032C000026344671E0002D00F0A180012D00D193
:10033C00CE68FF2B00F2AF808646FF2B00F2AE801A
:10034C00A500DEF800200F27AF4022EA070206FACC
:10035C0005F52A43CEF800204A6812F0805F53D08E
:10036C00634A956945F001059561926902F00102B5
:10037C000192019AA508AF1C5E4A52F8272004F09E
:10038C000307BF004FF00F0E0EFA07FE22EA0E0213
:10039C00DFF870E1704500F088800EF5806E7045D6
:1003AC0000F086800EF5806E704500F084800EF5AE
:1003BC00806E704576D04FF0040E0EFA07F73A4374
:1003CC0002354C4F47F825204A6812F4803F75D00F
:1003DC00494D2A681A432A604A6812F4003F73D0C8
:1003EC00454D6A681A436A604A6812F4801F71D0DE
:1003FC00414DAA681A43AA604A6812F4001F6FD0D4
:10040C003D4DEA681343EB6001340F2C6ED801228A
:10041C00A2400B6813409A42F6D14D68122D30D091
:10042C000BD8022D2AD07FF67EAF032D2FD0112DA5
:10043C007FF47FAFCE6804367BE7304FBD4216D0D9
:10044C000CD92F4FBD4212D007F58037BD420ED0CC
:10045C00A7F58017BD427FF46CAF08E0A7F58017B5
:10046C00BD4204D007F58037BD427FF462AF8D6882
:10047C007DB1012D08D0426108265AE7CE680836B6
:10048C0057E7CE680C3654E70261082651E7002680
:10049C004FE704264DE700F1040E4EE7A4F10805E2
:1004AC00AD004EE74FF0030E87E74FF0000E84E7E8
:1004BC004FF0010E81E74FF0020E7EE70E4D2A68D9
:1004CC0022EA03022A6087E70B4D6A6822EA0302DC
:1004DC006A6089E7084DAA6822EA0302AA608BE7E2
:1004EC00054DEA6822EA0303EB608DE703B0F0BD2B
:1004FC0000100240000001400004014000002110E7
:10050C00000031100008014012B909040161704764
:10051C0001617047002800F0A28070B5044690F885
:10052C003D30002B4FD0242384F83D3022681368D3
:10053C0023F00103136001F01FF862684A4B9A42E2
:10054C0046D84A4B98428CBF00230123002B40F025
:10055C008880474BA3FB00239B0C226853602168C7
:10056C006568414A954239D801330B62226861684B
:10057C003D4B99423CD801384900B0FBF1F00130B9
:10058C00C0F30B00042838BF0420D0612268E36953
:10059C00216A0B43136022682369E1680B43936063
:1005AC0022686369A1690B43D3602268136843F026
:1005BC000103136000202064202384F83D30206365
:1005CC0084F83E0070BD80F83C3002F0CBFBAAE70B
:1005DC00284B98428CBF00230123B7E74FF4967247
:1005EC0002FB03F3244AA2FB03239B090133BCE760
:1005FC00A568BDB9431E01EB4106B3FBF6F301330D
:10060C00C3F30B03B3FA83F35B0933BBC5B9431EC6
:10061C0001EB4100B3FBF0F00130C0F30B0040F4F0
:10062C000040B2E7431E01EB810606EB8606B3FBE6
:10063C00F6F30133C3F30B03B3FA83F35B09E4E77B
:10064C00431E01EB810000EB8000B3FBF0F00130A6
:10065C00C0F30B0040F4404097E7012095E70120E0
:10066C007047012070BD00BFA08601007F841E0072
:10067C0083DE1B43FF083D00D34D6210002866D07B
:10068C00F0B587B0044690F82934C3B1032384F83D
:10069C002934206801F01AF8254655F8107B6E466F
:1006AC000FCD0FC62B683360231D0ECB384600F0E0
:1006BC00FDFF0021206801F013F8002315E080F8FD
:1006CC00283402F05FFCE1E704EB4312012182F8CD
:1006DC00291082F828309386002182F82B10916320
:1006EC00D1639A1C5201A15001330E2BECD900237B
:1006FC0012E004EB4312002182F8291282F828320E
:10070C00938682F82B12C2F83812C2F83C1203F10D
:10071C0012025201A15001330E2BEAD9254655F88D
:10072C00107B6E460FCD0FC62B683360231D0ECB8E
:10073C00384600F0D7FF002584F82450012384F8B4
:10074C002934206801F0E7FA284607B0F0BD0120F3
:10075C00704790F82834012B01D10220704710B556
:10076C000446012180F8281402F04BFD206801F0AA
:10077C00D0FA206800F0A1FF002084F8280410BDF6
:10078C0090F82834012B01D10220704710B5044693
:10079C00012380F8283480F82410006801F0B3FAA3
:1007AC00002084F8280410BD38B54DB2002D12DBA2
:1007BC0001F07F04640104F50A74044401F07F0124
:1007CC002170ED0F65702261E37090F82834012BD5
:1007DC0007D1022038BD01F07F04640128340444A1
:1007EC00ECE70546012380F828342146006800F028
:1007FC008FFF002085F8280438BD4AB2002A10DB90
:10080C0001F07F035B0103F50A73034401F07F01E0
:10081C001970D20F5A7090F82824012A07D102209F
:10082C00704701F07F035B0128330344EEE710B5FA
:10083C000446012280F828241946006801F001F9C9
:10084C00002084F8280410BD70B501F07F056C0100
:10085C0004F50A7101440444C4F83C2205F1120267
:10086C005201861883500023736084F8293284F86F
:10087C00285225B1006801F06BFA002070BD0068A9
:10088C0001F066FAF9E701F00F01123100EB4111AA
:10089C008888704770B501F07F056C0104F1280160
:1008AC0001440444E263AA1C5201861883500023BD
:1008BC007360012384F8293084F8285025B100682E
:1008CC0001F046FA002070BD006801F041FAF9E72A
:1008DC0070B582B005460023ADF80630ADF8043093
:1008EC0095E103889BB223F4E14323F070039BB2A0
:1008FC0003802A68B2F850309BB295F8281003EBAD
:10090C00C103023302EB4303D3F80034C3F30903EE
:10091C006B64EA6B1344EB630021284602F064FB22
:10092C0095F82430002B00F072812B6C002B40F0DA
:10093C006E812A6895F8243043F08003A2F84C307D
:10094C00002385F8243062E1B0F850309BB295F862
:10095C00282203EBC203063300EB4303D3F8003425
:10096C00C3F30903C5F84432B5F82C2205F22C4127
:10097C0001F054FB2A68138823F070031B051B0D30
:10098C001380284602F01EFB41E1B5F82C22D5F865
:10099C003C1201F043FBD5F84422D5F83C32134409
:1009AC00C5F83C3272E1C1F34F0211F0010F01D0D6
:1009BC00013292B2920292B2C3F8002484E130F870
:1009CC0024309BB2ADF80430BDF8043013F4004F62
:1009DC0036D1BDF8043013F0800F00F018812A686E
:1009EC0032F824309BB223F4E14323F070039BB222
:1009FC0022F8243005EB441393F83230002B40F0EE
:100A0C00B6802868B0F850309BB205EB441292F8CF
:100A1C00282003EBC203023300EB4303D3F800346A
:100A2C00C3F30903A21C05EB42125360002B00F028
:100A3C00CD8005EB44118A8DC96B01F074F9C5E0CA
:100A4C0030F8243023F070031B051B0D20F82430E4
:100A5C0005EB441393F83232DBB92868B0F8503008
:100A6C009BB205EB441292F8282203EBC203063327
:100A7C0000EB4303B3F80064C6F309068EB305EB31
:100A8C0044113346B1F82C22D1F83C1201F0C6FACD
:100A9C0027E0286805EB441393F8282230F822301D
:100AAC0013F4804F43D0B0F850309BB203EBC20329
:100ABC00023300EB4303B3F80064C6F3090666BBCC
:100ACC002A6805EB441393F8281232F8213023F0EE
:100ADC00F0031B051B0D43F4004343F0C00322F845
:100AEC00213004F112035B01E9184A6832444A6070
:100AFC0005EB4411D1F83C223244C1F83C22EB58AE
:100B0C001BB1D1F838128E4229D205EB441393F85D
:100B1C002812284602F05EFA5BE705EB44113346D7
:100B2C00B1F82E22D1F83C1201F078FAC8E7B0F8EF
:100B3C0050309BB203EBC203063300EB4303B3F814
:100B4C000064C6F30906002EBAD005EB44113346F7
:100B5C00B1F83022D1F83C1201F060FAB0E705EBA5
:100B6C00441191F828122846FFF76EFE31E72868E9
:100B7C0005EB441393F8282030F8223013F0400F83
:100B8C0000F0B880B0F850309BB203EBC2030233D4
:100B9C0000EB4303D3F80034C3F30903A21C05EBA9
:100BAC0042125360002B40F09E802A6805EB4413E0
:100BBC0093F8281032F8213023F0F0031B051B0D9D
:100BCC0043F4404343F0800322F821302A68B2F802
:100BDC0050309BB205EB441090F8281003EBC10386
:100BEC00023302EB4303D3F80024C2F30902A31C23
:100BFC005B01E9184A60C16B0A44C263EB58002BD5
:100C0C0040F0928090F82810284602F0EDF9286800
:100C1C00B0F844309BB2ADF8063013F4004F00F03E
:100C2C008B80BDF8064014F00F047FF4C8AEBDF8FD
:100C3C00063013F0100F3FF454AE03889BB2ADF89E
:100C4C000430BDF8043013F4006F7FF47DAEBDF8B2
:100C5C00043013F4004FDAD0038823F070031B0523
:100C6C001B0D03802868B0F850309BB295F82822F1
:100C7C0003EBC203063300EB4303D3F80034C3F396
:100C8C000903C5F84432002B7FF47FAE00212846BF
:100C9C0002F0A0F92A68B2F850309BB2063302EB8E
:100CAC004303D5F838123E297FF67DAEC1F34F12BF
:100CBC0011F01F0F01D1013A92B26FEAC2626FEAD2
:100CCC00524292B2C3F800242A6813889BB223F4D0
:100CDC00804323F0700383F4405343F4004343F008
:100CEC008003138093E705EB4411CA8DC96B01F0A7
:100CFC001AF85AE7B0F850309BB203EBC203063334
:100D0C0000EB4303D3F80034C3F30903A21C05EB37
:100D1C0042125360002B3FF448AF05EB44110A8E8E
:100D2C00C96B01F000F840E705EB441494F8281067
:100D3C002846FFF7AFFD6AE7002002B070BD10B582
:100D4C000446006800F0E9FF10F4004F45D120681C
:100D5C0000F0E3FF10F4806F43D1206800F0DDFF5A
:100D6C0010F4804F08D02268B2F844309BB223F4C0
:100D7C0080439BB2A2F84430206800F0CEFF10F400
:100D8C00005F08D02268B2F844309BB223F40053C1
:100D9C009BB2A2F84430206800F0BFFF10F4805FD3
:100DAC0030D1206800F0B9FF10F4006F49D12068F1
:100DBC0000F0B3FF10F4007F66D1206800F0ADFFA7
:100DCC0010F4807F08D02268B2F844309BB223F430
:100DDC0080739BB2A2F8443010BD2046FFF778FD1B
:100DEC00B5E72268B2F844309BB223F480639BB21F
:100DFC00A2F84430204602F006F900212046FFF705
:100E0C00BFFCAAE72268B2F840309BB223F004037F
:100E1C009BB2A2F840302268B2F840309BB223F06B
:100E2C0008039BB2A2F84030204602F009F9226870
:100E3C00B2F844309BB223F480539BB2A2F84430F6
:100E4C00AFE72268B2F840309BB243F00803A2F837
:100E5C0040302268B2F844309BB223F400639BB25A
:100E6C00A2F844302268B2F840309BB243F004033D
:100E7C00A2F84030206800F050FF10F4805F96D14B
:100E8C00204602F0CDF892E72268B2F844309BB2CB
:100E9C0023F400739BB2A2F84430204602F0ADF864
:100EAC008BE738B54AB2002A10DB4B0103F50A7305
:100EBC00034401249C7001F07F041C70D20F5A7003
:100ECC0090F82824012A07D1022038BD01F07F03B5
:100EDC005B0128330344ECE70546012280F8282403
:100EEC001946006800F08FFE1CB1002085F828041C
:100EFC0038BD05F22C41286800F013FFF5E710B55A
:100F0C004AB2002A10DB4B0103F50A730344002498
:100F1C009C7001F07F011970D20F5A7090F8282440
:100F2C00012A07D1022010BD01F07F035B01283399
:100F3C000344ECE70446012280F828241946006893
:100F4C0000F098FE002084F8280410BD11F0800FEA
:100F5C000CD001F07F014901283101445AB1012222
:100F6C008A72CB801B0C0B8100207047490101F564
:100F7C000A710144F2E78A728B80F5E782B0084B64
:100F8C001B68084AA2FB03235B0A00FB03F00190D9
:100F9C0000BF019B5A1E0192002BF9D102B0704781
:100FAC0018010020D34D621070B582B0044603685E
:100FBC0013F0010F3DD0AC4B5B6803F00C03042B1A
:100FCC002ED0A94B5B6803F00C03082B23D063686D
:100FDC00B3F5803F51D0002B55D103F1804303F57D
:100FEC0004331A6822F480321A601A6822F48022C0
:100FFC001A606368002B60D0FFF7FAF805469A4B2D
:10100C001B6813F4003F14D1FFF7F2F8401B64285F
:10101C00F5D90320AFE1944B5B6813F4803FD6D035
:10102C00914B1B6813F4003F03D06368002B00F056
:10103C009F81236813F0020F65D08B4B5B6813F014
:10104C000C0F4ED0884B5B6803F00C03082B43D07D
:10105C002369002B79D00122844B1A60FFF7C8F862
:10106C000546814B1B6813F0020F65D1FFF7C0F8E2
:10107C00401B0228F5D903207DE17B4A136843F419
:10108C0080331360B5E7B3F5A02F09D0764B1A68FF
:10109C0022F480321A601A6822F480221A60A8E7BF
:1010AC0003F18043A3F53C331A6842F480221A60A2
:1010BC001A6842F480321A609BE7FFF799F80546EC
:1010CC00694B1B6813F4003FB3D0FFF791F8401B3A
:1010DC006428F5D903204EE1634B5B6813F4803F21
:1010EC00B6D1614B1B6813F0020F04D02369012B9E
:1010FC0001D001203FE15C4A136823F0F8036169D9
:10110C0043EAC1031360236813F0080F32D0A369BC
:10111C00002B6ED00122564B1A60FFF769F805467A
:10112C00514B5B6A13F0020F21D1FFF761F8401BA2
:10113C000228F5D903201EE14B4A136823F0F8036B
:10114C00616943EAC1031360DDE70022474B1A6073
:10115C00FFF74EF80546444B1B6813F0020FD2D034
:10116C00FFF746F8401B0228F5D9032003E10120C4
:10117C00FFF704FF236813F0040F00F099803A4B3B
:10118C00DB6913F0805F46D1374BDA6942F080524D
:10119C00DA61DB6903F080530193019B0125354B28
:1011AC001B6813F4807F38D0E368012B49D0002BE7
:1011BC004DD103F1804303F504331A6A22F0010286
:1011CC001A621A6A22F004021A62E368002B5DD0DC
:1011DC00FFF70EF80646244B1B6A13F0020F66D17C
:1011EC00FFF706F8801B41F288339842F3D90320AD
:1011FC00C1E000221E4B1A60FEF7FAFF05461A4B9F
:10120C005B6A13F0020FB5D0FEF7F2FF401B022809
:10121C00F5D90320AFE00025C1E7164A136843F463
:10122C0080731360FEF7E4FF0646124B1B6813F441
:10123C00807FB9D1FEF7DCFF801B6428F5D9032031
:10124C0099E0094A136A43F001031362BDE7052BC9
:10125C0012D0054B1A6A22F001021A621A6A22F0A5
:10126C0004021A62B1E700BF0010024000004242C3
:10127C008004424200700040414B1A6A42F0040262
:10128C001A621A6A42F001021A629EE7FEF7B0FF78
:10129C0006463B4B1B6A13F0020F08D0FEF7A8FF63
:1012AC00801B41F288339842F3D9032063E0E5B9FF
:1012BC00E369002B5ED0324A526802F00C02082A15
:1012CC005BD0022B17D000222E4B1A60FEF790FF3A
:1012DC0004462B4B1B6813F0007F47D0FEF788FFAA
:1012EC00001B0228F5D9032045E0254AD36923F0D9
:1012FC008053D361DCE70022224B1A60FEF778FFA3
:10130C0005461F4B1B6813F0007F06D0FEF770FFDD
:10131C00401B0228F5D903202DE0236AB3F5803F4A
:10132C001AD017494B6823F47413226A606A02437B
:10133C0013434B600122134B1A60FEF759FF04460E
:10134C000F4B1B6813F0007F0ED1FEF751FF001BF3
:10135C000228F5D903200EE0094A536823F4003320
:10136C00A1680B435360DCE7002004E0002002E09E
:10137C00012000E0002002B070BD0120FBE700BF9F
:10138C00001002406000424210B586B0154C94E843
:10139C000F000DF1180E0EE90F00238AADF8043082
:1013AC00114B5B6803F00C02082A18D1C3F383427B
:1013BC00724412F8102C13F4803F03D10B4800FB3D
:1013CC0002F00DE0084B5B68C3F34043734413F821
:1013DC00143C074800FB02F0B0FBF3F000E00448BB
:1013EC0006B010BD803300080010024000093D001B
:1013FC0000127A00594B1B6803F007038B420CD286
:10140C00564A136823F007030B431360136803F069
:10141C000703994201D00120704770B5036813F09F
:10142C00020F06D04E4A536823F0F003846823431E
:10143C0053600D460446036813F0010F52D0436805
:10144C00012B23D0022B28D0454A126812F0020F30
:10145C0000F0828042494A6822F0030213434B6039
:10146C00FEF7C6FE06466368012B1DD0022B2AD060
:10147C003B4B5B6813F00C0F34D0FEF7B9FE801BAE
:10148C0041F288339842F3D9032070BD344A126874
:10149C0012F4003FDED1012070BD314A126812F007
:1014AC00007FD7D1012070BD2D4B5B6803F00C037E
:1014BC00042B17D0FEF79CFE801B41F28833984218
:1014CC00F2D9032070BD264B5B6803F00C03082B8C
:1014DC0008D0FEF78DFE801B41F288339842F2D97A
:1014EC00032070BD1D4B1B6803F007039D420CD2FB
:1014FC001A4A136823F007032B431360136803F095
:10150C0007039D4201D0012070BD236813F0040F26
:10151C0006D0134A536823F4E063E1680B4353602D
:10152C00236813F0080F07D00D4A536823F4605357
:10153C00216943EAC1035360FFF726FF084B5B6840
:10154C00C3F30313074AD35CD840074B1860002041
:10155C00FEF70CFE002070BD012070BD0020024083
:10156C00001002409433000818010020014B186849
:10157C00704700BF1801002008B5FFF7F7FF044BB8
:10158C005B68C3F30223034AD35CD84008BD00BF99
:10159C0000100240A433000870B582B00446036802
:1015AC0013F0010F34D03E4BDB6913F0805F48D150
:1015BC003B4BDA6942F08052DA61DB6903F080530D
:1015CC000193019B0125374B1B6813F4807F3AD0A4
:1015DC00334B1B6A13F4407311D0626802F44072EF
:1015EC0093420CD02E4A136A23F440702E490126E4
:1015FC000E6000260E60106213F0010F37D1284ADE
:10160C00136A23F4407361680B431362002D3FD1BE
:10161C00236813F0020F06D0214A536823F4404389
:10162C00A1680B435360236813F0100F35D01C4A8C
:10163C00536823F48003E1680B435360002002B02D
:10164C0070BD0025BFE7174A136843F4807313601D
:10165C00FEF7CEFD0646134B1B6813F4807FB7D103
:10166C00FEF7C6FD801B6428F5D90320E7E7FEF7DB
:10167C00BFFD06460A4B1B6A13F0020FBFD1FEF7E3
:10168C00B7FD801B41F288339842F3D90320D6E78B
:10169C00D36923F08053D361BAE70020CFE700BFB2
:1016AC0000100240007000404004424284B001A887
:1016BC0080E80E00002004B07047B0F840309BB2B8
:1016CC0043F43F43A0F8403000207047B0F840305E
:1016DC0023F474535B045B0CA0F84030002070477B
:1016EC000020704784B038B505AC84E80E000123A7
:1016FC00A0F840300024A0F84040A0F84440A0F8E6
:10170C005040FFF7DAFF2046BDE8384004B0704780
:10171C0010B4CB78032B0FD8DFE803F0026E5561C1
:10172C000A7830F822309BB223F4EC4323F0700398
:10173C0043F4007320F822300A7830F8223023F07A
:10174C00F0031B051B0D134343F4004343F08003CC
:10175C0020F822308B7A002B40F0B2804B78002B93
:10176C0057D0B0F850309BB20A7803EBC20300EBB1
:10177C0043038A8852085200C3F800240A7830F8D0
:10178C00223013F0400F0BD030F8223023F0F0034E
:10179C001B051B0D43F4004343F0C00320F822301B
:1017AC000A7830F822309BB223F4E04323F0400354
:1017BC0083F0200343F4004343F0800320F82230ED
:1017CC00002010BC70470A7830F822309BB223F40A
:1017DC00EC4323F070039BB220F82230ACE70A787C
:1017EC0030F822309BB223F4EC4323F0700343F423
:1017FC00C06320F822309FE70A7830F822309BB281
:10180C0023F4EC4323F0700343F4806320F822307C
:10181C0092E7B0F850309BB20A7803EBC203043362
:10182C0000EB43038A8852085200C3F80024B0F836
:10183C0050309BB20A7803EBC203063300EB430330
:10184C000C693E2C30D9C4F34F1214F01F0F01D188
:10185C00013A92B26FEAC2626FEA524292B2C3F894
:10186C0000240A7830F8223013F4804F0BD030F873
:10187C00223023F0F0031B051B0D43F4404343F0CF
:10188C00800320F822300A7830F822309BB223F4FF
:10189C00804323F0700383F4405343F4004343F03C
:1018AC00800320F822308BE7C4F34F0214F0010FB1
:1018BC0001D0013292B2920292B2C3F80024D0E766
:1018CC000A7830F8223023F4F8731B051B0D43F40F
:1018DC00014343F0800320F82230B0F850309BB223
:1018EC000A7803EBC20300EB4303CA885208520088
:1018FC00C3F80024B0F850309BB20A7803EBC20353
:10190C00043300EB43030A8952085200C3F8002445
:10191C004B78002B4BD10A7830F8223013F4804FDF
:10192C000BD030F8223023F0F0031B051B0D43F4D1
:10193C00404343F0800320F822300A7830F82230FC
:10194C0013F0400F0BD030F8223023F0F0031B05BE
:10195C001B0D43F4004343F0C00320F822300A78F7
:10196C0030F8223023F0F0031B051B0D43F4004329
:10197C0043F0C00320F822300A7830F822309BB2B2
:10198C0023F4804323F0700383F4405348F2800423
:10199C00234320F822300A7830F822309BB223F40B
:1019AC00E04323F04003234320F8223008E70A7871
:1019BC0030F8223013F4804F0BD030F8223023F063
:1019CC00F0031B051B0D43F4404343F0800320F848
:1019DC0022300A7830F8223013F0400F0BD030F858
:1019EC00223023F0F0031B051B0D43F4004343F09E
:1019FC00C00320F822300A7830F8223023F0F003AC
:101A0C001B051B0D43F4404343F0800320F82230A8
:101A1C000B7830F8232092B222F4E04222F04002FC
:101A2C0048F28004224320F823200A7830F8223030
:101A3C009BB223F4804323F07003234320F822301D
:101A4C00BEE68B7A002B44D14B780BB30A7830F876
:101A5C00223013F0400F0BD030F8223023F0F0037B
:101A6C001B051B0D43F4004343F0C00320F8223048
:101A7C000A7830F822309BB223F4E04323F0400381
:101A8C0043F4004343F0800320F8223000207047D9
:101A9C000A7830F8223013F4804F0BD030F8223013
:101AAC0023F0F0031B051B0D43F4404343F080036C
:101ABC0020F822300A7830F822309BB223F480438D
:101ACC0023F0700343F4004343F0800320F82230EA
:101ADC00DCE710B44B78002B4BD10A7830F822306D
:101AEC0013F4804F0BD030F8223023F0F0031B0599
:101AFC001B0D43F4404343F0800320F822300A7856
:101B0C0030F8223013F0400F0BD030F8223023F095
:101B1C00F0031B051B0D43F4004343F0C00320F8F6
:101B2C0022300A7830F8223023F0F0031B051B0D0D
:101B3C0043F4004343F0C00320F822300B7830F814
:101B4C00232092B222F4804222F0700248F28004E8
:101B5C00224320F823200A7830F822309BB223F459
:101B6C00E04323F04003234320F82230002010BC34
:101B7C0070470A7830F8223013F4804F0BD030F8CD
:101B8C00223023F0F0031B051B0D43F4404343F0BC
:101B9C00800320F822300A7830F8223013F0400FFE
:101BAC000BD030F8223023F0F0031B051B0D43F44F
:101BBC00004343F0C00320F822300A7830F822307A
:101BCC0023F0F0031B051B0D43F4404343F080034B
:101BDC0020F822300B7830F8232092B222F4E04225
:101BEC0022F0400248F28004224320F823200A7895
:101BFC0030F822309BB223F4804323F0700323434C
:101C0C0020F82230B2E70A788AB14B7813BB30F84F
:101C1C0022309BB223F4804323F0700383F480536F
:101C2C0043F4004343F0800320F8223010E030F8F6
:101C3C0022309BB223F4804323F0400383F480537F
:101C4C0083F0100343F4004343F0800320F8223068
:101C5C000020704730F822309BB223F4E04323F08D
:101C6C00400383F0100343F4004343F0800320F857
:101C7C002230EDE74B781BB30A7830F8223013F0A2
:101C8C00400F0BD030F8223023F0F0031B051B0D56
:101C9C0043F4004343F0C00320F822300A7830F8B4
:101CAC0022309BB223F4E04323F0400383F0300353
:101CBC0043F4004343F0800320F8223000207047A7
:101CCC000A7830F8223013F4804F0BD030F82230E1
:101CDC0023F0F0031B051B0D43F4404343F080033A
:101CEC0020F822300A7830F822309BB223F480435B
:101CFC0023F0700383F4405343F4004343F0800318
:101D0C0020F82230DAE711B98023A0F84C300020FB
:101D1C0070470020704700207047B0F8440080B234
:101D2C0070470020704701335B1000EB420202F554
:101D3C00806263B110B40C78487844EA002422F82D
:101D4C00044B0231013B002BF5D110BC704770479E
:101D5C00F8B58A694C78012C35D00B699A4240F25F
:101D6C00F080D21A8A618A7A002A40F0FA80B0F8A0
:101D7C00502092B20C7802EBC402063200EB420205
:101D8C003E2B40F2E280C3F34F1413F01F0F01D12E
:101D9C00013CA4B26FEAC4646FEA5444A4B2C2F822
:101DAC0000440A7830F822309BB223F4804323F0AD
:101DBC00700383F4405343F4004343F0800320F852
:101DCC0022300020F8BD0F69BA4226D9D21B8A6195
:101DDC000E4605468B7A23B30B7830F8232012F08D
:101DEC00400F6CD0002C39D1B0F8502092B202EBDD
:101DFC00C303063300EB43033E2F23D9C7F34F1223
:101E0C0017F01F0F01D1013A92B26FEAC2626FEA6A
:101E1C00524292B2C3F800242AE000238B61174689
:101E2C00D6E7BBB28A884969FFF77DFFB5F8503019
:101E3C009BB2327803EBC203023305EB4303C3F8C6
:101E4C0000742BE0C7F34F0217F0010F01D00132E1
:101E5C0092B2920292B2C3F8002409E0B0F850207A
:101E6C0092B202EBC303023300EB4303C3F80074DA
:101E7C003289BBB271692846FFF755FF7378002B86
:101E8C004FD1327835F8223023F0F0031B051B0DAF
:101E9C0043F4004343F0C00325F82230327835F880
:101EAC0022309BB223F4E04323F0400383F0300351
:101EBC0043F4004343F0800325F8223081E724BB30
:101ECC00B0F8502092B202EBC303023300EB430391
:101EDC003E2F0ED9C7F34F1217F01F0F01D1013A45
:101EEC0092B26FEAC2626FEA524292B2C3F8002415
:101EFC0015E0C7F34F0217F0010F01D0013292B277
:101F0C00920292B2C3F8002409E0B0F8502092B2C9
:101F1C0002EBC303023300EB4303C3F80074F288F3
:101F2C00A7E7012BBAD1327835F8223023F0F00331
:101F3C001B051B0D43F4404343F0800325F822306E
:101F4C00ACE700238B6113460DE7C3F34F0413F08A
:101F5C00010F01D00134A4B2A402A4B2C2F800440F
:101F6C001FE7C4B9B0F8502092B20C7802EBC4024F
:101F7C00023200EB42023E2B29D9C3F34F1413F06B
:101F8C001F0F01D1013CA4B26FEAC4646FEA544440
:101F9C00A4B2C2F800444A788ABBB0F8502092B27E
:101FAC000C7802EBC402063200EB42023E2B1AD92B
:101FBC00C3F34F1413F01F0F01D1013CA4B26FEA0D
:101FCC00C4646FEA5444A4B2C2F80044E9E6C3F313
:101FDC004F0413F0010F01D00134A4B2A402A4B237
:101FEC00C2F80044D7E7C3F34F0413F0010F01D03C
:101FFC000134A4B2A402A4B2C2F80044D1E6012A6E
:10200C007FF4CFAEB0F8502092B20C7802EBC40241
:10201C00023200EB4202C2F80034C2E601335B101C
:10202C0000EB420202F5806204E0106821F8020B1A
:10203C00013B0432002BF8D17047D0F818321BB199
:10204C000020C3F8140270470220704710B5D0F876
:10205C001842D0F81C325BB194F80002FF2807D06C
:10206C009B6894F8012221469847FF2384F800329C
:10207C00002010BD43230380004870470800002057
:10208C0043230380004870474C0000204323038007
:10209C0000487047900000200A23038000487047D6
:1020AC00D400002038B50446D0F8185201F09EF840
:1020BC00C5F80C02D4F818324BB1D4F81C32DB68DA
:1020CC0005F50371D5F804029847002038BD0220AD
:1020DC0038BD000070B505460C46D0F818620B7878
:1020EC0013F0600224D0202A25D1CA88CAB113F07B
:1020FC00800F0AD14B7886F80032CB8886F80132F3
:10210C00CA88314600F090FC15E0D0F81C329B6870
:10211C00314660789847E2883146284600F06FFCDB
:10212C0009E0D0F81C329B6800224878984702E0FE
:10213C004B780A2B01D0002070BD0122014900F020
:10214C005EFCF8E77C01002010B50446812100F00C
:10215C00E6FF0121204600F0E2FF8221204600F03C
:10216C00DEFFD4F8183253B1D4F81C325B689847B0
:10217C00D4F8180201F044F80023C4F818320020F7
:10218C0010BD38B50446037C73BB4FF400730222B8
:10219C00812100F0B3FF4FF400730222012120468D
:1021AC0000F0ACFF082303228221204600F0A6FF9A
:1021BC004FF4077001F020F80546C4F8180248B334
:1021CC00D4F81C321B6898470023C5F81432C5F8A4
:1021DC001832237CA3B14023D5F8042201212046D8
:1021EC0000F0F6FF002038BD40230222812100F0D0
:1021FC0085FF402302220121204600F07FFFD1E71A
:10220C004FF40073D5F804220121204600F0E0FFC2
:10221C00002038BD012038BD19B1C0F81C120020B7
:10222C00704702207047D0F81832C3F80812C3F870
:10223C00102200207047D0F81832C3F80412002086
:10224C007047D0F818228AB108B5D2F814320BB105
:10225C00012008BD0123C2F81432B2F81032D2F8B2
:10226C000822812100F0A6FF002008BD0220704743
:10227C00D0F818229AB108B5037C3BB14023D2F8B0
:10228C000422012100F0A4FF002008BD4FF40073CC
:10229C00D2F80422012100F09BFF002008BD02208F
:1022AC00704798B108B50346D0F8140210B100205D
:1022BC00C3F8140209B1C3F810121846012380F8B0
:1022CC00FC31027000F0C2FE002008BD02207047F5
:1022DC0019B1C0F81412002070470220704708B5DD
:1022EC0000F0FEFE002008BD08B5D0F8143223B172
:1022FC001B68984718B1022008BD022008BD0020B9
:10230C0008BD08B5D0F814325B689847002008BDAA
:10231C0038B5044600F50275284600F00DF9012386
:10232C00C4F8F431B4F80E32C4F8F83194F8081249
:10233C0001F01F03012B0ED03BB1022B10D001F08A
:10234C008001204600F0F9FE03E02946204600F00B
:10235C006DFA002038BD2946204600F08BFAF8E7CC
:10236C002946204600F0A2FAF3E710B5044619BB43
:10237C001346D0F8F421032A27D1D0F80C11D0F849
:10238C00102191420BD8D0F814321B691BB190F874
:10239C00FC21032A0ED0204600F05DFB15E0891AC3
:1023AC00C0F80C118A4228BF0A4692B2194600F0B6
:1023BC004AFB0AE09847EEE70A46D0F814329B69CC
:1023CC001BB190F8FC11032901D0002010BD11465F
:1023DC009847FAE710B50446002947D11346D0F8C0
:1023EC00F421022A05D094F80032012B3AD00020B7
:1023FC0010BDC169026A914217D88169B1FBF2F331
:10240C0002FB13132BB98A4203D8D0F8F831994246
:10241C0018D3D4F81432DB681BB194F8FC21032ACE
:10242C001DD0204600F022FBDDE78A1AC26192B271
:10243C00194600F0F1FA00231A461946204600F01E
:10244C00C7FED0E70022114600F0E6FA0021C4F8DE
:10245C00F8110B460A46204600F0BAFEC3E72046A8
:10246C009847DEE7002384F80032C0E70A46D0F82C
:10247C0014325B69002BBAD090F8FC110329B6D149
:10248C0011469847B3E738B504464023002211465D
:10249C0000F034FE4025C4F810512B460022802158
:1024AC00204600F02BFE2562012384F8FC31D4F881
:1024BC0018322BB1D4F814325B6821792046984736
:1024CC00002038BD01740020704790F8FC3180F872
:1024DC00FD31042380F8FC310020704790F8FD3169
:1024EC0080F8FC310020704708B590F8FC31032BC4
:1024FC0001D0002008BDD0F81432DB69002BF8D0D5
:10250C009847F6E7002302E00133DBB20130027892
:10251C00002AF9D1184670474B88012B00D0704720
:10252C0010B50446C0F80432D0F814329B689847B2
:10253C00204600F090FA10BD0B7803704B78437076
:10254C008B78CA7803EB022343800B794A7903EB2F
:10255C00022383808B79CA7903EB0223C3807047F3
:10256C0010B50446802100F0E8FD0021204600F063
:10257C00E4FD10BD30B583B004460D464A88130AFD
:10258C00013B062B00F28180DFE803F00413277F68
:10259C007F637000D0F810321B680DF10601007CCF
:1025AC009847BDF8062012B1EB88002B71D103B00F
:1025BC0030BD037C43B9D0F814329B6A0DF1060090
:1025CC00984702234370ECE7D0F81432DB6A0DF124
:1025DC000600984702234370E3E7D2B2052A34D8A9
:1025EC00DFE802F0030B131B232BD0F810325B68CF
:1025FC000DF10601007C9847D3E7D0F810329B68A8
:10260C000DF10601007C9847CBE7D0F81032DB685F
:10261C000DF10601007C9847C3E7D0F810321B6916
:10262C000DF10601007C9847BBE7D0F810325B69CE
:10263C000DF10601007C9847B3E7D0F810329B6986
:10264C000DF10601007C9847ABE72946FFF788FFA0
:10265C00ADE7037C33B9D0F814325B6B0DF1060097
:10266C0098479EE72946FFF77BFFA0E7037C43B919
:10267C00D0F814321B6B0DF10600984707234370FA
:10268C008FE72946FFF76CFF91E72946FFF768FFB4
:10269C008DE79A4228BF1A46ADF80620014620461F
:1026AC0000F0ADF983E738B504468B88E3B9CB88E5
:1026BC00D3B98D7805F07F0590F8FC31032B0CD045
:1026CC0080F8FE51294600F067FD204600F0C3F962
:1026DC0035B1022384F8FC3138BDFFF741FF38BD1A
:1026EC00012384F8FC3138BD2046FFF739FF38BD93
:1026FC0038B504460D468978254B1970012909D83F
:10270C0090F8FC31022B09D0032B1CD02946FFF783
:10271C0027FF38BD2946FFF723FF38BD81B1416043
:10272C00032380F8FC31FFF7DFFD022803D020469D
:10273C0000F091F938BD29462046FFF711FF38BD4E
:10274C0000F089F938BD89B1436899421DD0D9B2DE
:10275C00FFF7D7FD0E4B197861602046FFF7C4FDDB
:10276C0002280DD0204600F076F938BD022380F8FF
:10277C00FC314160FFF7C5FD204600F06CF938BD17
:10278C0029462046FFF7ECFE38BD00F064F938BD51
:10279C007D01002008B5CB88012B08D190F8FC31C5
:1027AC00022B07D0032B0DD0FFF7DAFE08BDFFF785
:1027BC00D7FE08BD0146002341F8083F012200F076
:1027CC001EF908BD0122011D00F019F908BD08B55C
:1027DC0090F8FC31023B012B0CD80123C360D0F8DC
:1027EC0004320BB10323C360022200F10C0100F090
:1027FC0006F908BDFFF7B4FE08BD10B5044690F805
:10280C00FC31023B012B0ED84B88012B00D010BDA4
:10281C000023C0F80432D0F814329B689847204645
:10282C0000F019F910BDFFF79BFEF0E708B54B78E7
:10283C00092B1CD8DFE803F012181B151B09051B0C
:10284C000F0CFFF797FE002008BDFFF72CFFFAE7EF
:10285C00FFF74EFFF7E7FFF79DFFF4E7FFF7B7FF32
:10286C00F1E7FFF759FEEEE7FFF7C7FFEBE7FFF7DE
:10287C0077FEE8E738B504460D4690F8FC31032B9B
:10288C0011D10B79012B03D9FFF76AFE002038BD5B
:10289C00D0F814329B689847EB88002BF6D1204671
:1028AC0000F0D9F8F2E7FFF75BFEEFE738B5054625
:1028BC000C468A880B7803F06003202B11D0D1B220
:1028CC006378012B2BD0002B4DD0032B0DD190F81E
:1028DC00FC31022B0BD0032B10D02146FFF740FE0E
:1028EC0003E0D0F814329B689847002038BD0029CB
:1028FC00FBD08029F9D000F020FCF6E7638823B9DF
:10290C0019B1802901D000F018FCD5F814329B685D
:10291C00214628469847284600F09DF8E5E790F8B0
:10292C00FC31022B05D0032B0AD02146FFF718FEF1
:10293C00DBE70029D9D08029D7D000F0FEFBD4E703
:10294C006388002BD1D111F07F0F03D1284600F002
:10295C0082F8CAE700F0FFFBD5F814329B682146D9
:10296C0028469847F2E790F8FC31022B05D0032B50
:10297C0009D02146FFF7F4FDB7E711F07F0FB4D073
:10298C0000F0DBFBB1E712F0800F11D101F07F04F6
:10299C00103400EB04140434284600F0EAFB70B148
:1029AC000123236002222146284600F028F89CE7E8
:1029BC0001F07F04013400EB04140434ECE7002331
:1029CC002360EFE7D0B170B50D4616460446FFF70D
:1029DC0099FD0130400080B23080287003236B7069
:1029EC00022307E05A1CD2B20134E9540233DBB2A1
:1029FC000021A95421780029F4D170BD704710B57D
:102A0C0013460222C0F8F4218361C3610A460021F7
:102A1C0000F0D0FB002010BD08B513460A4600217B
:102A2C0000F0C8FB002008BD10B513460322C0F807
:102A3C00F421C0F80831C0F80C310A46002100F02E
:102A4C00C7FB002010BD08B513460A46002100F054
:102A5C00BFFB002008BD08B50423C0F8F4310023E7
:102A6C001A46194600F0A6FB002008BD08B5052340
:102A7C00C0F8F43100231A46194600F0A9FB0020D7
:102A8C0008BD704770B500F03FFAB0F1FF3FFAD0C7
:102A9C00054631280BD0322D11D0682DF3D11921D8
:102AAC00154800F059FA6420FDF7A8FBEBE710215C
:102ABC00124800F051FA6420FDF7A0FBEBE7182157
:102ACC000F4800F049FA6420FDF798FB002610E04F
:102ADC000C4CE36883F40053E3606420FDF78EFB39
:102AEC00E36883F40053E3604FF44870FDF786FB12
:102AFC000136092EECDDD0E7DC330008AC330008DE
:102B0C00C03300080010014030B589B0294B9A69D8
:102B1C0042F010029A619A6902F010020092009A37
:102B2C009A6942F020029A619A6902F0200201929D
:102B3C00019A9A6942F004029A619A6902F00402BD
:102B4C000292029A9A6942F008029A619B6903F018
:102B5C0008030393039B184D00224FF400512846A1
:102B6C00FDF7D2FC4FF4005304930123059300238B
:102B7C0006930223079304A92846FDF7CFFB4FF4D5
:102B8C00404304930324059404A92846FDF7C6FB8F
:102B9C0048F2FF730493059404A90848FDF7BEFBA3
:102BAC004FF2FF330493059404A90548FDF7B6FBD7
:102BBC0009B030BD00100240001001400008014077
:102BCC00000C0140FEE7000008B50B480B4B0360FE
:102BDC000B4B436000238360C3604FF4804202615F
:102BEC0043618361C3610362FDF794FC00B908BDC6
:102BFC00EC210448FFF7E6FFB0030020005800402A
:102C0C00A0860100F833000800B595B001220A92A5
:102C1C004FF480330B9300210C910E9202221192EF
:102C2C0012934FF4E01313930AA8FEF7BDF948BBB7
:102C3C000F23059302210691002307934FF4806222
:102C4C000892099305A8FEF7D5FBF8B91023019358
:102C5C000023049301A8FEF79FFCD8B9FEF786FC6D
:102C6C000E4BA3FB00308009FDF72CFB0420FDF775
:102C7C003FFB002211464FF0FF30FDF7E5FA15B08F
:102C8C005DF804FBB9210648FFF79CFFC7210448F7
:102C9C00FFF798FFCE210248FFF794FFD34D621047
:102CAC00F833000808B5FDF785FAFFF7ADFFFFF71D
:102CBC002BFF00F0B9F8FFF787FFFFF7E2FEFFF7F5
:102CCC00E1FEFCE700B583B0244B9A6942F00102A7
:102CDC009A619A6902F001020092009ADA6942F054
:102CEC008052DA61DB6903F080530193019B03206E
:102CFC00FDF798FA002211466FF00B00FDF7A4FACD
:102D0C00002211466FF00A00FDF79EFA00221146D0
:102D1C006FF00900FDF798FA002211466FF00400DD
:102D2C00FDF792FA002211466FF00300FDF78CFAC2
:102D3C00002211466FF00100FDF786FA00221146C1
:102D4C004FF0FF30FDF780FA054A536823F0E0633B
:102D5C0043F00073536003B05DF804FB00100240B5
:102D6C000000014002680F4B9A4200D0704700B53A
:102D7C0087B04FF44063029312230393032305930C
:102D8C0002A90948FDF7CAFA084BDA6942F4800235
:102D9C00DA61DB6903F480030193019B07B05DF8F2
:102DAC0004FB00BF00580040000C01400010024022
:102DBC007047FEE7FEE7FEE7FEE770477047704797
:102DCC0008B5FDF709FAFDF7A4FA08BD08B50248E5
:102DDC00FDF7B5FF08BD00BFC80600200F4B1A68F1
:102DEC0042F001021A6059680D4A0A405A601A688A
:102DFC0022F0847222F480321A601A6822F4802243
:102E0C001A605A6822F4FE025A604FF41F029A604C
:102E1C004FF00062034B9A60704700BF00100240F5
:102E2C000000FFF800ED00E010B5094C0022094944
:102E3C002046FFF736FA08492046FFF749FA0749BA
:102E4C002046FFF7E9F92046FFF749FA10BD00BF0D
:102E5C000404002044010020E00000201C0100209C
:102E6C00002070470020704710B5074C002207491E
:102E7C002046FFF7D8F906492046FFF7DCF9204633
:102E8C00FFF7F6F9002010BD0404002068060020AE
:102E9C0028060020104B1A685B689A4212D00E4A22
:102EAC0053680E49C85453680133594203F01F0349
:102EBC0001F01F0158BF4B4253601168536899428F
:102ECC0006D07047044B1B7ADBB2012BE7D1F8E735
:102EDC000122014B1A72F4E780010020A8060020A1
:102EEC0070B506460D46002403E0305DFFF7D2FFB7
:102EFC0001342B689C42F8D30248FFF7B9F9002043
:102F0C0070BD00BF04040020114B1A685B689A4224
:102F1C0012D00F4A13680F49C85C13680133594229
:102F2C0003F01F0301F01F0158BF4B4213601168DF
:102F3C005368994207D07047054B1B7A002BE8D198
:102F4C004FF0FF30F7E70022014B1A72704700BFB9
:102F5C0080010020A8060020094BD3F81832D3F8C2
:102F6C0014320BB10120704710B50A460146044CCF
:102F7C002046FFF758F92046FFF763F910BD00BF54
:102F8C000404002002680E4B9A4200D0704700B532
:102F9C0083B003F5DA33DA6942F40002DA61DB69F3
:102FAC0003F400030193019B002211461420FDF74A
:102FBC004BF91420FDF77AF903B05DF804FB00BF60
:102FCC00005C004008B500F22C41D0F85C04FFF71F
:102FDC009FF908BD08B500EB4113D3F83C22D0F89B
:102FEC005C04FFF7C2F908BD08B500EB4113DA6BBE
:102FFC00D0F85C04FFF7EEF908BD08B5D0F85C0416
:10300C00FFF772FA08BD10B504460121D0F85C0434
:10301C00FFF758FAD4F85C04FFF735FA10BD00003E
:10302C0010B50446D0F85C04FFF74FFAA36923B13E
:10303C00024A136943F00603136110BD00ED00E072
:10304C0008B5D0F85C04FFF749FA08BD10B5044682
:10305C002048C0F85C44C4F820021F4B03600823CE
:10306C004360022383600323C36000238361C36135
:10307C000362FDF703FB30BB182300221146D4F882
:10308C002002FDF763FF582300228021D4F8200290
:10309C00FDF75CFFC02300228121D4F82002FDF74C
:1030AC0055FF4FF4887300220121D4F82002FDF75C
:1030BC004DFF4FF4807300228221D4F82002FDF7DB
:1030CC0045FF002010BD4FF497710448FFF77AFDBF
:1030DC00D2E700BFC8060020005C0040083400089E
:1030EC0008B5D0F82002FDF734FB18B1022803D044
:1030FC00022008BD002008BD012008BD10B51C46EB
:10310C0013462246D0F82002FDF74EFB18B10228D8
:10311C0003D0022010BD002010BD012010BD08B549
:10312C00D0F82002FDF769FB18B1022803D0022069
:10313C0008BD002008BD012008BD08B5D0F820024C
:10314C00FDF7AFFE18B1022803D0022008BD002005
:10315C0008BD012008BD08B5D0F82002FDF7CFFE50
:10316C0018B1022803D0022008BD002008BD0120A0
:10317C0008BDD0F8202211F0800F06D101F07F019C
:10318C0002EB411191F82A02704701F07F0302EB28
:10319C00431191F82A00704708B5D0F82002FDF7CA
:1031AC00EFFA18B1022803D0022008BD002008BD98
:1031BC00012008BD08B5D0F82002FDF76BFB18B153
:1031CC00022803D0022008BD002008BD012008BD44
:1031DC0008B5D0F82002FDF737FB18B1022803D050
:1031EC00022008BD002008BD012008BD08B5D0F89C
:1031FC002002FDF748FB08BD004870478C010020F9
:10320C007047704712230B80004870472C01002038
:10321C0004230B80004870474001002008B50A4683
:10322C0028B105490548FFF7CDFB034808BD024905
:10323C000248FFF7C7FBF8E7280B00201C340008F6
:10324C0010B5044C0A4621460348FFF7BBFB204649
:10325C0010BD00BF280B00203434000808B50A4606
:10326C0028B105490548FFF7ADFB034808BD0249E5
:10327C000248FFF7A7FBF8E7280B002048340008AA
:10328C0008B50A4628B105490548FFF79BFB0348DA
:10329C0008BD02490248FFF795FBF8E7280B002010
:1032AC005834000808B50A4628B105490548FFF707
:1032BC0089FB034808BD02490248FFF783FBF8E786
:1032CC00280B002064340008002103E00B4B5B58F2
:1032DC00435004310A480B4B42189A42F6D30A4A1F
:1032EC0002E0002342F8043B084B9A42F9D3FFF763
:1032FC0075FD00F00FF8FFF7D5FC70477C34000823
:10330C00000000206001002060010020280D00203A
:10331C00FEE7000070B500250C4E0D4CA41BA4104C
:10332C00A54209D100F01AF800250A4E0A4CA41B3C
:10333C00A410A54205D170BD56F82530984701352B
:10334C00EEE756F8253098470135F2E7743400085B
:10335C00743400087434000878340008F8B500BFE1
:10336C00F8BC08BC9E467047F8B500BFF8BC08BC5A
:04337C009E467047B2
:1033800002030405060708090A0B0C0D0E0F1010A6
:103390000102000000000000000000000102030420
:1033A000060708090000000001020304596F752098
:1033B000707265737365642031210D0A000000008E
:1033C000426C696E6B696E67206C656420313020D9
:1033D00074696D65732E0D0A0000000048656C70FD
:1033E000206E6F7420737570706F727465642079CD
:1033F0006574210D0A0000002E2E2F5372632F6D6D
:1034000061696E2E630000002E2E2F5372632F759C
:103410007362645F636F6E662E63000053544D33B6
:1034200032205669727475616C20436F6D506F72F3
:103430007400000053544D6963726F656C6563746A
:10344000726F6E696373000030303030303030306E
:10345000303031410000000043444320436F6E662A
:103460006967000043444320496E74657266616376
:0434700065000000F3
:04347400310100081A
:043478000D0100083A
:10347C00010000001000000009024300020100C01E
:10348C0032090400000102020100052400100105AC
:10349C002401000104240202052406000107058210
:1034AC000308001009040100020A000000070501CE
:1034BC0002400000070581024000000009024300A1
:1034CC00020100C0320904000001020201000524BF
:1034DC000010010524010001042402020524060049
:1034EC00010705820308001009040100020A00000C
:1034FC00000705010200020007058102000200001E
:10350C0009074300020104C0320904000001020251
:10351C00010005240010010524010001042402020D
:10352C000524060001070582030800FF09040100B9
:10353C00020A000000070501024000000705810295
:10354C00400000000A0600020000004001000000DC
:10355C008F21000855210008E12000080000000020
:10356C005920000847200008B12000080000000086
:10357C0000000000000000008D20000881200008E1
:10358C0099200008A520000800A24A04752E000806
:10359C006D2E0008712E0008ED2E0008120100029D
:1035AC0002020040830440570002010203010000A4
:1035BC0004030904113200081D3200084D320008C2
:1035CC0029320008693200088D320008B132000837
:04000005080032D5E8
:00000001FF
